:100000000C9435000C945D000C945D000C945D0024
:100010000C945D000C945D000C945D000C945D00EC
:100020000C945D000C945D000C945D000C945D00DC
:100030000C945D000C945D000C945D000C945D00CC
:100040000C942D020C945D000C94FB010C94D501D2
:100050000C945D000C945D000C945D000C945D00AC
:100060000C945D000C945D00770211241FBECFEF4D
:10007000D8E0DEBFCDBF22E0A8E9B1E001C01D920B
:10008000AE3BB207E1F711E0A0E0B1E0EEEDF4E144
:1000900002C005900D92A839B107D9F710E0C5E369
:1000A000D0E004C02197FE010E949406C433D1071A
:1000B000C9F70E94BE020C946D0A0C940000CF9206
:1000C000DF92EF92FF920F931F93CF93DF936C0118
:1000D0007A018B01C0E0D0E0CE15DF0589F0D801B0
:1000E0006D918D01D601ED91FC910190F081E02D93
:1000F000C6010995892B11F47E0102C02196ECCF2F
:10010000C701DF91CF911F910F91FF90EF90DF908A
:10011000CF900895089580E090E00895FC01538DFC
:10012000448D252F30E0842F90E0821B930B5417D1
:1001300010F0CF96089501970895FC01918D828D5E
:10014000981761F0828DDF01A80FB11D5D968C912B
:10015000928D9F5F9F73928F90E008958FEF9FEF36
:100160000895FC01918D828D981731F0828DE80FF2
:10017000F11D858D90E008958FEF9FEF0895FC01AC
:10018000918D228D892F90E0805C9F4F821B910979
:100190008F739927089583ED91E00E94BF0021E0BD
:1001A000892B09F420E0822F0895FC01848DDF0162
:1001B000A80FB11DA35ABF4F2C91848D90E00196DA
:1001C0008F739927848FA689B7892C93A089B189C9
:1001D0008C9180648C93938D848D981306C00288D3
:1001E000F389E02D80818F7D80830895EF92FF92C7
:1001F0000F931F93CF93DF93EC0181E0888F9B8D4A
:100200008C8D981305C0E889F989808185FD24C00B
:10021000F62E0B8D10E00F5F1F4F0F731127E02E8E
:100220008C8DE8120CC00FB607FCFACFE889F9896B
:10023000808185FFF5CFCE010E94D500F1CF8B8D57
:10024000FE01E80FF11DE35AFF4FF0820B8FEA89A0
:10025000FB898081806207C0EE89FF896083E8891D
:10026000F98980818064808381E090E0DF91CF9183
:100270001F910F91FF90EF900895CF93DF93EC01C2
:10028000888D8823C9F0EA89FB89808185FD05C0B6
:10029000A889B9898C9186FD0FC00FB607FCF5CFF0
:1002A000808185FFF2CFA889B9898C9185FFEDCF38
:1002B000CE010E94D500E7CFDF91CF91089580E075
:1002C00090E0892B29F00E94CB0081110C94000052
:1002D00008952FB7F89460919D0170919E018091CF
:1002E0009F019091A0012FBF08950E94C70761153B
:1002F000710579F0FB0101900020E9F73197AF011A
:10030000461B570BDC01ED91FC910280F381E02D3F
:10031000099480E090E008954F925F926F927F92EF
:10032000EF92FF920F931F93CF93DF93CDB7DEB77A
:10033000A1970FB6F894DEBF0FBECDBF7C01FA01C6
:10034000CB0119A2223008F42AE08E010F5D1F4F65
:10035000422E512C612C712CBF01A30192010E94ED
:100360003B06F901CA01015011096A3014F4605DBD
:1003700001C0695CD8016C93232B242B252B61F7DA
:10038000B801C7010E947701A1960FB6F894DEBFAD
:100390000FBECDBFDF91CF911F910F91FF90EF90D6
:1003A0007F906F905F904F9008951F920F920FB6BD
:1003B0000F9211242F933F934F935F936F937F93EB
:1003C0008F939F93AF93BF93EF93FF9383ED91E050
:1003D0000E94D500FF91EF91BF91AF919F918F91B6
:1003E0007F916F915F914F913F912F910F900FBE31
:1003F0000F901F9018951F920F920FB60F92112415
:100400002F938F939F93EF93FF93E091E301F091EC
:10041000E4018081E091E901F091EA0182FD12C0DE
:1004200090818091EC018F5F8F732091ED01821795
:1004300051F0E091EC01F0E0ED52FE4F958F80938A
:10044000EC0101C08081FF91EF919F918F912F91DD
:100450000F900FBE0F901F9018951F920F920FB61E
:100460000F9211242F933F938F939F93AF93BF933A
:1004700080919D0190919E01A0919F01B091A0015A
:1004800030919C0123E0230F2D3720F40196A11D0C
:10049000B11D05C026E8230F0296A11DB11D2093B2
:1004A0009C0180939D0190939E01A0939F01B09326
:1004B000A0018091980190919901A0919A01B09129
:1004C0009B010196A11DB11D809398019093990104
:1004D000A0939A01B0939B01BF91AF919F918F918F
:1004E0003F912F910F900FBE0F901F901895E3ED45
:1004F000F1E01382128288EE93E0A0E0B0E0848302
:100500009583A683B7838AE091E09183808385EC0D
:1005100090E09587848784EC90E09787868780ECCD
:1005200090E0918B808B81EC90E0938B828B82ECBE
:1005300090E0958B848B86EC90E0978B868B118E68
:10054000128E138E148EE0E7F2E016821782108668
:100550001186128613861486158616861786108ACB
:10056000118A128A138A148A158A84E690E00E94FE
:100570009A069093B9028093B8020895789484B54E
:10058000826084BD84B5816084BD85B5826085BD8F
:1005900085B5816085BD80916E00816080936E001D
:1005A000109281008091810082608093810080910F
:1005B00081008160809381008091800081608093C0
:1005C00080008091B10084608093B1008091B00080
:1005D00081608093B00080917A00846080937A007B
:1005E00080917A00826080937A0080917A008160A5
:1005F00080937A0080917A00806880937A001092CC
:10060000C1001092B4021092B5021092B60210927C
:10061000B70210927202109273021092740210923A
:1006200075020E9469016B017C014B015C0168EB62
:10063000860E6BE0961EA11CB11C0E9469016C1510
:100640007D058E059F0528F086169706A806B90633
:10065000A0F783ED91E09093B3028093B202E09112
:10066000E301F091E40182E08083E091DF01F09109
:10067000E0011082E091E101F091E20180E18083EC
:100680001092EB01E091E701F091E80186E08083B0
:10069000E091E501F091E601808180618083E09145
:1006A000E501F091E601808188608083E091E501B9
:1006B000F091E601808180688083E091E501F0910E
:1006C000E60180818F7D80830E94690160937202C0
:1006D00070937302809374029093750268E171E0E5
:1006E0008091B2029091B3020E9477010E94690149
:1006F0006B017C014B015C018AE0880E911CA11CFE
:10070000B11C0E9469016C157D058E059F0528F0BE
:1007100086169706A806B906A0F781E080938602A0
:10072000E091E301F091E40182E08083E091DF0158
:10073000F091E0011082E091E101F091E20183E1AA
:1007400080831092EB01E091E701F091E80186E2ED
:100750008083E091E501F091E601808180618083F2
:10076000E091E501F091E601808188608083E0916D
:10077000E501F091E601808180688083E091E501E8
:10078000F091E60180818F7D808383ED91E00E946E
:10079000BF00892BD1F344EFC42EDD24D394E12C88
:1007A000F12CC0E4D1E00E946901672B682B692B12
:1007B00041F40E946901623071058105910508F4D8
:1007C00017C10E9469016093CF017093D00180939B
:1007D000D1019093D2010091CB011091CC012091D5
:1007E000CD013091CE01601771078207930740F465
:1007F0006093CB017093CC018093CD019093CE0197
:100800000091CB011091CC012091CD013091CE010E
:100810004B015C01801A910AA20AB30A9501840176
:100820000A3F11052105310508F4E2C06093CB01B0
:100830007093CC018093CD019093CE01C0927E0243
:10084000D0927F02E0928002F092810210928202A6
:100850001092830210928402109285028091760297
:1008600090917702A0917802B091790280937A02F8
:1008700090937B02A0937C02B0937D020E94690159
:100880006093760270937702809378029093790256
:100890000E946901609372027093730280937402E4
:1008A000909375020E9469014B015C016AE271E05C
:1008B0008091B2029091B3020E9477012AE041E058
:1008C00050E060E070E08091B2029091B3020E942B
:1008D0008C0161E371E08091B2029091B3020E94B9
:1008E00077012AE0B501A4018091B2029091B30290
:1008F0000E948C0163E371E08091B2029091B30297
:100900000E9477018091760290917702A0917802FF
:10091000B0917902B501A401481B590B6A0B7B0BFE
:100920002AE08091B2029091B3020E948C0163E3AD
:1009300071E08091B2029091B3020E9477014091E0
:1009400076025091770260917802709179028091DD
:100950007A0290917B02A0917C02B0917D02481BAB
:10096000590B6A0B7B0B2AE08091B2029091B30283
:100970000E948C0165E371E08091B2029091B30214
:100980000E9477010E946901AB01BC012AE08091BD
:10099000B2029091B3020E948C010091B2021091B8
:1009A000B30267E371E0C8010E94770167E271E07A
:1009B000C8010E9477010E9469012B013C014B0193
:1009C0005C0165E0860E911CA11CB11C0E946901AE
:1009D000641575058605970508F046C10E946901F2
:1009E00060937602709377028093780290937902F5
:1009F00083ED91E00E94BF000091C9011091CA01EE
:100A0000892B09F42BC158018FEFA81AB80AB092AC
:100A1000CA01A092C90183ED91E00E949D00F801F6
:100A2000E954FE4F808392E1A916B10409F011C187
:100A30008091B80190E0382F22274091B701242BF4
:100A400037703093A2012093A1012091B90130E0C9
:100A5000A90165E0440F551F6A95E1F773E095958C
:100A600087957A95E1F7842B952B97709093A40145
:100A70008093A3018091BB0190E04091BA01E4E032
:100A80004E9FA0011124E6E035952795EA95E1F700
:100A9000242B352BAC01542F4427550F550F242BF5
:100AA000352B37703093A6012093A5014091BC01EE
:100AB000242F30E0B9017695762F662777956795D4
:100AC00095958795862B972B97709093A801809387
:100AD000A70142954695469543704093A90114E0BD
:100AE000359527951A95E1F723702093AA018091F7
:100AF000BE0190E0982F88272091BD01822B909312
:100B0000AC018093AB018091C00190E0982F8827C1
:100B10002091BF01822B9093AE018093AD01809113
:100B2000C20190E0982F88272091C101822B9093D9
:100B3000B0018093AF018091C3018093B301809194
:100B4000C4018093B4018091C50190E09093B601F7
:100B50008093B50107EB11E0F80141918F0150E05E
:100B600060E070E020E183ED91E00E948C016EE393
:100B700071E083ED91E00E947701F1E0093C1F07ED
:100B800059F78091B6018F938091B5018F93809131
:100B9000B4011F928F938091B3011F928F93809124
:100BA000B0018F938091AF018F938091AE018F93AD
:100BB0008091AD018F938091AC018F938091AB01B7
:100BC0008F938091AA01282F082E000C330B3F939E
:100BD0008F938091A901282F082E000C330B3F938F
:100BE0008F938091A8018F938091A7018F9380911B
:100BF000A6018F938091A5018F938091A4018F937B
:100C00008091A3018F938091A2018F938091A10184
:100C10008F93DF93CF938091B9028F938091B80225
:100C20008F930E94CC076091B8027091B90283ED56
:100C300091E00E94770167E271E083ED91E00E940C
:100C400077018DB79EB74C960FB6F8949EBF0FBE36
:100C50008DBF1092CA011092C90103C00231110563
:100C6000C1F70E945F019FCD86169706A806B906B8
:100C700008F0ACCEB3CEA1E21A2EAA1BBB1BFD011D
:100C80000DC0AA1FBB1FEE1FFF1FA217B307E4076B
:100C9000F50720F0A21BB30BE40BF50B661F771FC3
:100CA000881F991F1A9469F76095709580959095A3
:100CB0009B01AC01BD01CF0108952F923F924F924D
:100CC0005F926F927F928F929F92AF92BF92CF92DC
:100CD000DF92EF92FF920F931F93CF93DF93CDB7E5
:100CE000DEB7CA1BDB0B0FB6F894DEBF0FBECDBF5D
:100CF00009942A88398848885F846E847D848C842E
:100D00009B84AA84B984C884DF80EE80FD800C8136
:100D10001B81AA81B981CE0FD11D0FB6F894DEBF19
:100D20000FBECDBFED010895EE0FFF1F0590F491AA
:100D3000E02D0994CF93DF938230910510F482E087
:100D400090E0E091BC02F091BD0220E030E0C0E014
:100D5000D0E0309711F14081518148175907C0F018
:100D60004817590761F482819381209719F09B837A
:100D70008A832BC09093BD028093BC0226C02115AC
:100D8000310519F04217530718F49A01BE01DF012B
:100D9000EF010280F381E02DDCCF2115310509F14F
:100DA000281B390B2430310590F412968D919C91BB
:100DB00013976115710521F0FB019383828304C0B1
:100DC0009093BD028093BC02FD01329644C0FD01A8
:100DD000E20FF31F81939193225031092D933C939D
:100DE0003AC02091BA023091BB02232B41F42091EA
:100DF0000201309103013093BB022093BA0220918B
:100E00000001309101012115310541F42DB73EB7A4
:100E10004091040150910501241B350BE091BA0269
:100E2000F091BB02E217F307A0F42E1B3F0B28172B
:100E3000390778F0AC014E5F5F4F2417350748F053
:100E40004E0F5F1F5093BB024093BA028193919360
:100E500002C0E0E0F0E0CF01DF91CF9108950F9361
:100E60001F93CF93DF93009709F48CC0FC01329756
:100E7000138212820091BC021091BD02011511056E
:100E800081F420813181820F931F2091BA02309129
:100E9000BB022817390779F5F093BB02E093BA0239
:100EA00071C0D80140E050E0AE17BF0750F4129671
:100EB0002D913C911397AD012115310509F1D9010F
:100EC000F3CF9D01DA013383228360817181860F24
:100ED000971F8217930769F4EC0128813981260F47
:100EE000371F2E5F3F4F318320838A819B819383FD
:100EF0008283452B29F4F093BD02E093BC0242C0EB
:100F00001396FC93EE931297ED01499159919E012E
:100F1000240F351FE217F30771F480819181840F4C
:100F2000951F029611969C938E93828193811396BE
:100F30009C938E931297E0E0F0E0D80112968D9189
:100F40009C911397009719F0F8018C01F6CF8D91C1
:100F50009C9198012E5F3F4F820F931F2091BA0200
:100F60003091BB022817390769F4309729F41092A1
:100F7000BD021092BC0202C0138212821093BB0207
:100F80000093BA02DF91CF911F910F91089581E0F4
:100F900090E0F8940C946D0AAEE0B0E0E2EDF7E07A
:100FA0000C946B060D891E8986E08C831A83098355
:100FB0008FEF9FE79E838D83AE01475E5F4F6F8902
:100FC000788DCE0101960E94EF072F813885F801B8
:100FD000E20FF31F10822E96E4E00C948706ACE03B
:100FE000B0E0E5EFF7E00C945D067C016B018A014F
:100FF000FC0117821682838181FFBDC1CE0101965B
:101000004C01F7019381F60193FD859193FF819146
:101010006F01882309F4ABC1853239F493FD8591C2
:1010200093FF81916F01853229F4B70190E00E940E
:10103000D709E7CF512C312C20E02032A0F48B329D
:1010400069F030F4803259F0833269F420612CC0A9
:101050008D3239F0803339F4216026C0226024605B
:1010600023C0286021C027FD27C030ED380F3A305B
:1010700078F426FF06C0FAE05F9E300D1124532E4F
:1010800013C08AE0389E300D1124332E20620CC02C
:101090008E3221F426FD6BC1206406C08C3611F41B
:1010A000206802C0883641F4F60193FD859193FFD4
:1010B00081916F018111C1CF982F9F7D95549330FD
:1010C00028F40C5F1F4FFFE3F9830DC0833631F026
:1010D000833771F0833509F05BC022C0F80180814D
:1010E00089830E5F1F4F44244394512C540115C033
:1010F0003801F2E06F0E711CF801A080B18026FF6C
:1011000003C0652D70E002C06FEF7FEFC5012C8733
:101110000E94CC092C0183012C852F77222E17C029
:101120003801F2E06F0E711CF801A080B18026FF3B
:1011300003C0652D70E002C06FEF7FEFC5012C8703
:101140000E94C1092C012C852068222E830123FCDA
:101150001BC0832D90E048165906B0F4B70180E219
:1011600090E00E94D7093A94F4CFF50127FC8591CD
:1011700027FE81915F01B70190E00E94D7093110ED
:101180003A94F1E04F1A51084114510471F7E5C047
:10119000843611F0893639F5F80127FF07C06081E0
:1011A0007181828193810C5F1F4F08C060817181C2
:1011B000072E000C880B990B0E5F1F4F2F76722E97
:1011C00097FF09C090958095709561957F4F8F4FDF
:1011D0009F4F2068722E2AE030E0A4010E940F0A7F
:1011E000A82EA81844C0853729F42F7EB22E2AE0F5
:1011F00030E025C0F22FF97FBF2E8F36C1F018F4F2
:10120000883579F0B4C0803719F0883721F0AFC045
:101210002F2F2061B22EB4FE0DC08B2D8460B82E0E
:1012200009C024FF0AC09F2F9660B92E06C028E08F
:1012300030E005C020E130E002C020E132E0F801FA
:10124000B7FE07C060817181828193810C5F1F4F5F
:1012500006C06081718180E090E00E5F1F4FA401A5
:101260000E940F0AA82EA818FB2DFF777F2E76FE6E
:101270000BC0372D3E7FA51450F474FE0AC072FCDB
:1012800008C0372D3E7E05C0BA2C372D03C0BA2CBE
:1012900001C0B52C34FF0DC0FE01EA0DF11D8081A7
:1012A000803311F4397E09C032FF06C0B394B39481
:1012B00004C0832F867809F0B39433FD13C030FF48
:1012C00006C05A2CB31418F4530C5B18B32CB31487
:1012D00068F4B70180E290E03C870E94D709B3949C
:1012E0003C85F5CFB31410F43B1801C0312C34FF0A
:1012F00012C0B70180E390E03C870E94D7093C858B
:1013000032FF17C031FD03C088E790E002C088E5D6
:1013100090E0B7010CC0832F867859F031FF02C0EE
:101320008BE201C080E237FD8DE2B70190E00E94C0
:10133000D709A51438F4B70180E390E00E94D709DB
:101340005A94F7CFAA94F401EA0DF11D8081B701F8
:1013500090E00E94D709A110F5CF332009F451CEB7
:10136000B70180E290E00E94D7093A94F6CFF701E6
:101370008681978102C08FEF9FEF2C96E2E10C945B
:101380007906FC010590615070400110D8F78095F6
:1013900090958E0F9F1F0895FC0161507040019041
:1013A0000110D8F7809590958E0F9F1F08950F9389
:1013B0001F93CF93DF93FB01238121FD03C08FEFA8
:1013C0009FEF28C022FF16C04681578124813581B6
:1013D0004217530744F4A081B1819D012F5F3F4F15
:1013E000318320838C93268137812F5F3F4F378352
:1013F000268310C0EB01092F182F0084F185E02D02
:101400000995892BE1F68E819F8101969F838E83BA
:10141000812F902FDF91CF911F910F910895FA01A5
:10142000AA27283051F1203181F1E8946F936E7F23
:101430006E5F7F4F8F4F9F4FAF4FB1E03ED0B4E014
:101440003CD0670F781F891F9A1FA11D680F791F55
:101450008A1F911DA11D6A0F711D811D911DA11D66
:1014600020D009F468943F912AE0269F1124301976
:10147000305D3193DEF6CF010895462F4770405D11
:101480004193B3E00FD0C9F7F6CF462F4F70405DC0
:101490004A3318F0495D31FD4052419302D0A9F71B
:1014A000EACFB4E0A6959795879577956795BA9515
:1014B000C9F700976105710508959B01AC010A2EDB
:1014C00006945795479537952795BA95C9F7620FB2
:0E14D000731F841F951FA01D0895F894FFCF71
:1014DE000000BE02800000000000F6005F008E00DB
:1014EE003D01BF009D00B100564D4450565F317C0A
:1014FE00315F564D4450560D0A00564D4450455FCF
:10150E00003A323A007C005F564D445045002000B0
:10151E0043303A2025642C2043313A2025642C2078
:10152E0043323A2025642C2043333A2025642C2064
:10153E0053313A2025642C2053323A2025642C2036
:10154E00583A2025642C20593A2025642C205A3AEA
:10155E002025642C204C3A2025642C205220256412
:08156E002C204B3A20256400FB
:00000001FF
