:1000000000000320D1010000C12800007928000071
:10001000792800007928000079280000792800005C
:10002000792800007928000079280000C128000004
:10003000C1280000792800007130000075310000EF
:10004000C1280000C1280000C1280000C12800000C
:10005000C1280000C1280000C1280000C1280000FC
:10006000C1280000C1280000C1280000C1280000EC
:10007000C1280000C1280000C1280000C1280000DC
:10008000C1280000C1280000C1280000C1280000CC
:10009000C1280000C1280000C1280000C1280000BC
:1000A000C1280000C1280000C1280000C1280000AC
:1000B000C1280000C1280000C1280000E113000091
:1000C000C1280000152A0000C1280000412B0000B3
:1000D000C1280000392C0000C1280000C128000000
:1000E000C1280000C1280000C1280000C12800006C
:1000F000C1280000C1280000C1280000C12800005C
:10010000C1280000C1280000C1280000C12800004B
:10011000C12800005D160000C1280000C1280000B1
:10012000C1280000C1280000C1280000C12800002B
:10013000C1280000C1280000C1280000C12800001B
:10014000C1280000C1280000312D0000C128000096
:10015000C1280000C1280000C1280000C1280000FB
:10016000C1280000C1280000C1280000C1280000EB
:10017000C1280000C1280000C1280000C1280000DB
:10018000C1280000C1280000C1280000C1280000CB
:10019000C1280000C1280000292E0000C12800004D
:1001A000C1280000C1280000C1280000C1280000AB
:1001B000C1280000C1280000C1280000C12800009B
:1001C000C1280000C1280000C1280000C12800008B
:1001D0005C4B4CF2205210B51A804DF628121A8052
:1001E00000BF00BF02F070FB574B4FF030621A6047
:1001F000564A9A60564ADA60564B4FF470021A60BB
:10020000554B564A1A60564A136813F4807304D14A
:1002100054490B604FF4A8531360534B1A781107DD
:1002200003D51A7842F008021A70504B5049AA229E
:100230001A70504A504B8B4204D252F8040F43F8C4
:10024000040BF8E74D4B4E4900228B4202D243F893
:10025000042BFAE74B494C4A002352F8230041F89B
:1002600023000133742BF8D1484B494A802103F80D
:10027000011B9342FBD1474B424A1A60464B8A22EC
:100280001A70A3F5805324225A70A0221A709A790A
:100290009207FCD59A79D406FCD4404A937903F0AE
:1002A0000C03082BFAD13E4B60221A7002331A78E5
:1002B000802AFCD1394B01221A715D225A719A7938
:1002C0009006FCD59979354A4906FBD5354B364918
:1002D00019600021596020231370937903F00C03F7
:1002E0000C2BFAD1314B324A1A60324B324A1A6027
:1002F00000225A60072243F8042C304AC3F80C2D20
:1003000062B600F03FFC174B1B68DA0705D52C4896
:1003100000F028FA2B4B2C4A1A602C4B1B785B06FA
:1003200009D5284C284B22689A4204D1244800F071
:1003300019FA0023236003F09DFB02F0CBFA02F0D0
:1003400047F8FEE70E20054030800440823F04005D
:100350000100002B88ED00E0002008E0030000858C
:1003600010D0034014D0034002D0074000E0074003
:10037000C011FF1F848200003007FF1FC011FF1F44
:100380008C16FF1F0002FF1F0000000000E400E0C9
:1003900064E400E008ED00E0005006400040064044
:1003A00001E007404480044000000602048004404D
:1003B000C010070014E000E01FBF02000000202072
:1003C00009C1A15A1CE00340A5C3945A00F007409C
:1003D000FFFFFFFFFFFFFFFFFFFFFFFFFFFFFFFF2D
:1003E000FFFFFFFFFFFFFFFFFFFFFFFFFFFFFFFF1D
:1003F000FFFFFFFFFFFFFFFFFFFFFFFFFFFFFFFF0D
:10040000FFFFFFFFFFFFFFFFFFFFFFFFDEF9FFFF23
:1004100010B5054C237833B9044B13B10448AFF33E
:1004200000800123237010BDC011FF1F00000000D9
:1004300080820000084B10B51BB108490848AFF393
:1004400000800848036803B910BD074B002BFBD0A0
:10045000BDE81040184700BF00000000C411FF1F96
:1004600080820000C011FF1F0000000008B54FF49B
:10047000616000F08FFC0620BDE8084000F012BD6E
:10048000F0B58BB000F02AFF122801DC0BB0F0BDF4
:1004900012227249724802F01BF800210D2000F070
:1004A00013FBDFF8B8E1DFF8E0C1002700252C4698
:1004B0006C4E06E0052C30D1982B01D0582B2CD156
:1004C000013438198CFB0023C117C1EBA30303EBE4
:1004D000C303A0EB430316F8012F1EF803309A4222
:1004E00005F10105E6D1122DEAD1CFB139465E48BA
:1004F00001F0C6FF10215D4801F0F0FD5A4801F0FF
:100500006FFF00F0EBFEB842FBDB594954483A4616
:100510000BB0BDE8F04001F0DBBF0137122FC5D1B1
:100520009EF802209EF803509EF804409EF80500B5
:100530009EF801609EF807C09EF800109EF80670B5
:10054000931143EA850343EA84234A4DC3F30A0324
:100550005201AB80C30147EA0C2742EAD60243EAC4
:10056000540341EA06269EF808409EF809C06F81B0
:10057000C6F30A06C2F30A02C3F30A032E806A8096
:1005800044EA0C269EF80A209EF80B40EB80830973
:1005900042EA04222B729EF80F409EF80E309EF81D
:1005A0000C70AE81C0F3011043EA04232B4C687237
:1005B0009EF80D00EA81AF74E874AB8204F1110675
:1005C00001E014F8011F28480023102201F018FF51
:1005D0000121294801F082FDB442F2D1274CEF7C81
:1005E000B5F90230B5F90020AE7CB5F90E102068DF
:1005F0000897B5F90C700796B5F90A60069195F958
:100600000910059795F908700496B5F906600391ED
:10061000B5F904108DE8C2001949AE8A099603F0B5
:10062000DFFF2468204604F00BF80146204601F065
:1006300055FD0D4801F0D4FEB5F900301149A3F580
:10064000B6731B0281FB0321DB17C3EB6121102072
:100650000BB0BDE8F04000F097B800BFDC11FF1F01
:100660004807FF1F2F07FF1F5807FF1F807C000050
:100670000C12FF1FF011FF1F947C00000812FF1FD7
:10068000987C0000FFC73863398EE33808B56420D2
:1006900003F018FA014B186008BD00BF0812FF1FD5
:1006A00010B4114B53F8302092F8804234B101233A
:1006B00079B182F880305DF8044B704703EBC003DA
:1006C0005B681A6851B922F002021A605DF8044BA7
:1006D000704782F800315DF8044B704742F0030226
:1006E0001A605DF8044B7047F47C00001C4A02EB72
:1006F000C00301295B6811D004291BD052F83000D7
:10070000002280F8802229B1022920D0032922D09A
:100710001A6070474FF480721A60704752F83000C8
:100720004FF4A27280F880121A601A6822F0200238
:100730001A60704752F830104FF4A272012081F80D
:1007400080021A601A6842F020021A60704740F274
:1007500003121A6070474FF481721A60704700BF2D
:10076000F47C000030B4054B054D064C00221021EE
:100770001A602A602060196030BC704714D00340B2
:1007800004D0034000D0034038B5A0F14203012B50
:10079000044624D900297ADD994B1B78012505FAF6
:1007A00003F28A4202D83F282CD938BDC21E012A42
:1007B00030D9A0F11D02012A78D90E285BD9A4F105
:1007C0002302032A5CD9A4F11002012A94BF8D4AA6
:1007D0008D4A126802FB011222FA03F320E0884BD3
:1007E0001B780B2B0AD90C2B1CBF0C3B1941422C3C
:1007F000084657D0BDE8384002F020B8C3F10C03DA
:100800009940F4E72946FFF74BFF2946BDE83840F9
:10081000FFF76CBF7D4A126802FB011222FA03F354
:10082000A21E242A00F2E380DFE812F0DA00D300EF
:10083000CC00C500BE00B700B000A900A200E100D6
:10084000E100E1009B00E10094008D00E100E10087
:1008500086007F0078007100E100E100E100E10026
:10086000E1006A006300E100E100E100E1005C00FA
:1008700055004E00470044F28412C240D2079ED574
:10088000634A126802FB011222FA03F3C8E73F2809
:100890008BD80021FFF704FF20460121BDE8384036
:1008A000FFF724BFBDE8384001F0AABF594A1268DB
:1008B00002FB011222FA03F3B2E75749574A0B60D1
:1008C0004FF45173136038BD5549564A0B604FF4CD
:1008D0005173136038BD5449544A0B604FF451733F
:1008E000136038BD5249534A0B604FF45173136083
:1008F00038BD5149514A0B604FF45173136038BDF4
:100900004F49504A0B604FF45173136038BD4E4944
:100910004E4A0B6040F24443136038BD4C494D4A87
:100920000B6040F24443136038BD4B494B4A0B60A7
:1009300040F24443136038BD49494A4A0B6040F2D3
:100940004443136038BD4849484A0B6040F2446351
:10095000136038BD4649474A0B6040F24463136058
:1009600038BD4549454A0B6040F24443136038BDE9
:100970004349444A0B6040F24443136038BD424946
:10098000424A0B6040F24443136038BD4049414A3B
:100990000B6040F24443136038BD3F493F4A0B604F
:1009A00040F24443136038BD3D493E4A0B6040F27B
:1009B0004443136038BD3C493C4A0B6040F2444319
:1009C000136038BD3A493B4A0B604FF451731360D2
:1009D00038BD3949394A0B604FF45173136038BD43
:1009E0003749384A0B6040F24443136038BD3F2C0E
:1009F0003FF6DBAE7F29D4BF00210121204649E725
:100A00004207FF1F08900C400880034008900340F5
:100A100008900B4008800B4048900B402CB00440DD
:100A200040900B4028B0044038900B4024B0044064
:100A300030900B4020B0044018800B404CA0044084
:100A400010800B4048A004401880034008B00440C8
:100A50001080034004B004404080034018C00440AC
:100A60003880034014C0044018900C4004A0044097
:100A700010900C4000A0044018900B4004C00440AB
:100A80002880034010B00440208003400CB0044094
:100A900028900B400CC0044020900B4008C004403C
:100AA0003080034010C00440488003401CC0044014
:100AB000189003403490044010900340309004405C
:100AC00010900B4000C004403F2801D8FFF7E8BD5C
:100AD000704700BF3F2801D8FFF708BE704700BF2E
:100AE0002DE9F843054672B6224F234B234A1B6873
:100AF0003C68126862B6520102D5322B88BF0134BD
:100B0000B5B3C3F52F3303F21F331D4EDFF86890E2
:100B1000DFF868809B084FF47A72A6FB031302FB90
:100B200004F404EB930472B6D9F800103A68D8F8CC
:100B300000E062B6C1F52F3303F21F339B08A6FB1A
:100B400003031EF0806FC4EB93034FF47A7002D05E
:100B5000322988BF013200FB0233B3F57A7F04D318
:100B6000013D05D004F57A74DDE701F0DDFCDAE73C
:100B7000BDE8F8832012FF1F18E000E004ED00E05C
:100B8000176CC116F8B54E4B4E48DFF85CC14E4CA1
:100B90004E49DFF858E14E4E4E4D4F4F4FF0006238
:100BA0001A604FF080521A604FF000521A604FF0F6
:100BB00080421A604FF000421A600022026028232F
:100BC0004EF6FF70CCF80000CEF8003023600EF532
:100BD000012E0B6033602B6006F500263B6005F5A7
:100BE0000025A36207F500278B6204F5012401F5B7
:100BF000012106F6E87605F6E87507F57F671031FE
:100C00000EF1100E203433602B60CEF800303B60C4
:100C10000B602360314CBB618B6109212160A7F51A
:100C2000002704F58054203F08343A602060BB6000
:100C3000E36047F8041C04F5FD2407F5FE2704379C
:100C400004F2FC7422603860A360FB6044F8041C6A
:100C5000083404F6FC74C7F8FC2F2060A4F5E124E6
:100C6000A4F2DC7433602B60C7F8F81F21681C48BD
:100C700041F40071216001681A4C0EF57F4E0EF1AF
:100C8000E80E07F5883706F5803605F5803541F022
:100C900000710160CEF8002047F6FF71082239602C
:100CA00033602B60226001F03BFD3220FFF718FF1C
:100CB00001F000F94FF4AF70BDE8F840FFF710BF46
:100CC00004E100E004800340148003401C800340E2
:100CD000248003402C800340348003400080034084
:100CE0000480044000900C40088003400C800340C6
:100CF0002DE9F84F214B1B6807460BB101221A70F2
:100D0000DFF888901E4D99F80040DFF884801D4E72
:100D100001343F2C8ABF4FF0000A5FFA84FA544630
:100D2000AB462B78A34216D101F0ECFD40281FDC26
:100D300033791B06F5D59BF8003001333F2B86BF76
:100D400000221346DAB218F80330DBB2F3712A70CE
:100D50002B78A342E8D00C490A4BFFB208F8047084
:100D60000120BC22087089F800A0DA70BDE8F88F75
:100D7000FF28D6DD01F0D8FBD3E700BFB412FF1F78
:100D8000B112FF1F00A00640B012FF1FB812FF1FD4
:100D90002C12FF1F324A33491368F0B543F48063C5
:100DA00013600A78304F314E314D324C32490023B6
:100DB000152A3B7033702B7023700B7045D01B2AA3
:100DC0003ED082B32D4B1B78052B34D01A2B41D04B
:100DD000012B1BD01F281FD8002002460125284BBD
:100DE000284C1A7028495D7004224FF0020E8827A3
:100DF0003C26402598729A704FF0004083F813E02B
:100E00005A751F74DE7025700860F0BD1F4B4FF4DB
:100E100051721F281A60DFD9C0F34432C0F347155E
:100E200000F01F00DBE71A4B40F213321A60134B3D
:100E30001B78052BCAD1174B4FF451721A60C9E7C2
:100E4000154B40F213321A60BCE7144B40F21332D8
:100E50001A60B7E7124B4FF451721A60BAE700BF3D
:100E6000348004406C12FF1F2812FF1F2912FF1F3D
:100E7000B812FF1FB112FF1FB012FF1F4307FF1F61
:100E800000A006401FE400E000E100E044A00440B0
:100E900040A004401CC004403C90044018C00440E2
:100EA00038900440194B19499B7803F0EC0200F08C
:100EB00003031343420700F00F0248BF43F010033F
:100EC000042A8B701CD0114B104A5B79C10603F0C9
:100ED000EF0348BF43F0100353719379820603F088
:100EE000EF030A4A48BF43F010039371C30506D5C8
:100EF00053781178DBB241F02001117053707047C4
:100F00008B7943F040038B71DDE700BF00A0064002
:100F1000284B1B685B0533D510B5274C237823B1CC
:100F200001F002FB2378002BFAD12448244A254BF8
:100F30004FF0004400210460D1701B78152B20D0A5
:100F40001B2B32D01BB9204B40F203121A601F4BEF
:100F50001B7803F07F03052B1DD01A2B20D0012B0B
:100F600003D11B4B40F203121A601A4B1A481B495B
:100F70001A68002303700B700AB10123137010BDAF
:100F80007047174B40F203121A60104B1B7803F0A6
:100F90007F03052BE1D1134B40F203121A60E4E703
:100FA000114B40F203121A60DFE7104B40F20312BC
:100FB0001A60CCE734800440B012FF1F80E100E0EB
:100FC00000A006406C12FF1F40A004404307FF1F13
:100FD00044A004402412FF1F2812FF1F2912FF1FE4
:100FE00018C004401CC00440389004403C900440A9
:100FF0000A4A38B50546137803F0FF04002BFAD1EE
:1010000001212846FFF766FD21462846FFF75CFDD3
:10101000034A044B52F835201A6038BDB012FF1F46
:10102000F47C0000B412FF1F09B140F080001E4A9A
:10103000137898421BD010B41C4C2468640513D557
:1010400003F07F03052B2AD01A2B24D0012B14D0B8
:10105000002900F07F0114BF60234423052915D027
:101060001A290ED0012903D010705DF8044B704787
:101070000F4943F440730B60F6E70D4B00241C60EE
:10108000E6E70C4943F440730B60EDE70A4943F48B
:1010900040730B60E8E7074B00241C60D8E7064B61
:1010A00000241C60D4E700BF4307FF1F34800440C6
:1010B00044A00440389004401CC00440174A1378F0
:1010C00083420ED016490968490509D5152B20D051
:1010D0001B2B1AD05BB115280DD01B2810D008B1DE
:1010E000107070470F4B40F213311960F8E70D494B
:1010F00015280B60F1D10C4B40F213311960EFE76A
:101100000A4B40F213311960EAE7084B00211960DD
:10111000E1E7054B00211960DDE700BF6C12FF1FFE
:101120003480044040A0044018C004403C90044077
:101130000D4B1B6813F4806305D03F2805D90B4B7A
:1011400000201860704718467047094B10B5074CCF
:1011500053F8303023600121FFF7BCFC23680022E4
:101160001A70012010BD00BF348004402412FF1FFC
:10117000F47C00000F4B1B6813F4806308D0122826
:1011800008D0142811D00C4A537B03F0FE0353738C
:1011900000207047094B40F202321A60064A537B26
:1011A00043F00103537301207047054B40F20232B4
:1011B0001A60F3E73480044000A006400CA004400D
:1011C00014C00440034B1B685B0501D5FFF790BDBD
:1011D000704700BF348004402DE9F84F294B1B684D
:1011E0005A0548D5284B1B6805460BB101221A70D9
:1011F00005EB010A554540D2DFF89C80234CDFF80F
:101200009C90234F0AE015F8012B09F80B20214A86
:101210000123AA45137088F800602ED098F800309A
:10122000227803F1010BBBF13F0F86BF0026B346C6
:101230005FFA8BF69345E6D1BC22FA7005E03A7965
:1012400013060BD422789345DDD101F05BFB4028D7
:10125000F5DDFF28F6DD01F067F9F3E722780132CA
:101260003F2A86BF00210A46D1B219F80220D2B225
:10127000FA712170E6E7BDE8F88F054BBC22DA7001
:10128000BDE8F88F34800440B412FF1FB112FF1F75
:1012900000A00640B012FF1FB812FF1F2C12FF1F44
:1012A00010B5044C237823B101F03EF92378002BCC
:1012B000FAD110BDB012FF1F064A074B1B781078F9
:1012C000DBB2C0B283422CBF3F3000F1FF30C01A06
:1012D000704700BFB112FF1FB812FF1F054A064B2F
:1012E00010781B78C0B2DBB2984238BF4030C01AC9
:1012F000704700BF2812FF1F2912FF1F30B4154B83
:10130000154C1A782378D2B2DBB29A421ED0013340
:101310003F2B0ED91149124B087819680023C0B22F
:10132000237021B1D31A1A2B01DC00230B7030BCBF
:1013300070470A480A49C05C0968DDB2C0B225702E
:101340000029F4D09A4238BF4032EBE74FF0FF302B
:10135000EDE700BF2812FF1F2912FF1F7012FF1FA9
:101360002412FF1F084A094B12781B78DBB29A42FD
:1013700007D00133402B28BF0023054AD05CC0B200
:1013800070474FF0FF3070472812FF1F2912FF1FD0
:101390007012FF1F0D4B1B685B0516D530B40C4B4C
:1013A0000C4CDA780C480D4902F0CB024025DA707B
:1013B0005D74DA7842F03402DA7023780268DBB2C6
:1013C0000B700AB10023137030BC704734800440A6
:1013D00000A006402912FF1F2412FF1F2812FF1F22
:1013E000F0B4384B1A7912F0300F2CD072B6997DC8
:1013F00001F0FF0200293DD062B6334F33493878FF
:101400000D78334E1C46C0B2EDB2431C402BE1793F
:1014100028BF0023AB4202F1FF32C9B21CBFF15416
:10142000184612F0FF02F0D12A4B1B68C2B23A7084
:101430004BB1A84236BFC5F14005401B40192728D3
:10144000C4BF01221A701F49CA78D2B2150616D439
:1014500052060DD51B4B1B795B0609D51E4B1F4948
:101460001B6800220A7003B11A70164B3C22DA7016
:10147000F0BC70474022D9795A7462B6E3E70B7921
:101480001C06E5D5164B174E1C783378E4B2DBB258
:101490009C420ED0144D01E0A3420AD00133402BF0
:1014A00028BF00230879E85CC0B2C871087D07280E
:1014B000F2D9DBB2034933700B79180644BF7C23A1
:1014C000CB70C5E700A006402812FF1F2912FF1F9E
:1014D0007012FF1F2412FF1FB412FF1FB012FF1F54
:1014E000B812FF1FB112FF1F2C12FF1F431E032B48
:1014F00014D872B60A4951F8230068B170B4094C87
:10150000058834F81320466841F82360521B24F8FC
:10151000132062B670BC704762B6704700207047F7
:101520001413FF1F7416FF1F013803280BD872B65F
:10153000074B53F8203043B100205B680130002B8B
:10154000FBD162B67047002070471846F9E700BF2C
:101550006813FF1FF0B472B61A491B4E012311F82D
:10156000014B194F9A00240742F0010505D556F8A2
:10157000324064B156F83520BAB10133052BEED1B3
:1015800062B6124B00221A70F0BC00F01BBD0F4C6B
:101590000F4D217847F8325007EB431308304A1EAD
:1015A0005860227062B6F0BC70470849094B0A784F
:1015B00047F8353007EBC5030830013A58600A7028
:1015C00062B6F0E7807F00000000FF1F9113FF1F4D
:1015D00088004000C8004000431E032B1DD81B4A52
:1015E000400140F0100030B4104472B6184CE25C78
:1015F000032A1BD8DFE802F00212151703220D8818
:10160000E25410F0080F14BFC823882343EA0543AF
:1016100008310360416062B630BC70470830022276
:10162000EDE70522EBE708300422E8E7094A52F823
:10163000230038B1084A52F82300416042F82310D1
:1016400062B6E9E742F82310034AF7E70000FF1FFC
:10165000A013FF1F6813FF1F7813FF1F2DE9F04F22
:10166000DFF804A3DFF804B387B044E0A94F4FEAE2
:10167000930807EBC809013ED9F8042003F00803DA
:10168000F6B2A2F1080003F0FF04002B40F0FE8048
:1016900057F838301B0C99B222F8081C002B00F0C8
:1016A000EC809D4B22F8064C42F8044C53F826205F
:1016B000002A00F02B82994D55F826305860984C3E
:1016C00045F8260034F81630194424F8161000F0B6
:1016D00059FC002800F01382924A934B19F0080F2E
:1016E00000F1080018BF1346C9F8040047F8383065
:1016F00008238AF800309AF80040E4B260071AD54F
:101700008A4B1B78A3B18A490A7802F0FF0322B101
:10171000013BDBB20B7003B900BE86490A7802F0C8
:10172000FF032AB1013BDBB20B70002B00F0BD813F
:1017300004238AF8003004F0080303F0FF02002BB2
:1017400000F0C8809BF80030DBB21E098ED19C08E7
:10175000704F57F8342007EBC401C2F38302013AFB
:1017600049680C2A00F28580DFE802F079798383EA
:101770008383838342838383070008686E4B6F4DA6
:101780000193684B4A686E4E47F8343081B240F29C
:101790008164694B6A60286000220120A1421A60BE
:1017A0003A61BA61307000F2E380B1F5D06F80F039
:1017B0002782B1F5817F00F0E08100F2C3818029AA
:1017C00000F03682822940F0DE81A9885D4B01F06D
:1017D0007F01042900F2D8815B4C89000B44227000
:1017E00062701A78930740F122832070022023E26E
:1017F000514B01931A683AB3544B514E54491888CF
:1018000034780D784028864645F0020828BF4FF00E
:10181000400E002C84F001043470CEEB00000CBFAD
:101820008824C82407EBC80680B285F0010544EA85
:101830000E447260188047F8384072440D700028DA
:1018400000F0B780019B1A603C4B1A88B2F5A06F7C
:101850000FD100219A7859703E4B1A7009E0374A2F
:10186000108842F22102904200F0A8802D4A47F8E9
:101870003420394A012313703AE72A4A2A4B19F0D7
:10188000080F18BF134647F8383031E700F09AFBCD
:10189000324A334952F82630002B00F03B81586819
:1018A0008C5D42F8260003F10802C9F80420032CDD
:1018B00005D8DFE804F02C02292602228A551A886E
:1018C00019F0080F0CBF8823C82343EA024347F8E6
:1018D00038300DE7E00700F1EB80210600F12881A8
:1018E000A20706D51F4A204913780220DBB21370E5
:1018F0000870E30602D51C4B10221A7007B0BDE831
:10190000F08F04228A55DAE705228A55D7E70322A9
:101910008A55D4E70000FF1F1413FF1FC012FF1FDA
:101920007416FF1FC8004000880040009C13FF1F72
:101930002513FF1FA413FF1FBC12FF1F8813FF1FD7
:101940002413FF1FC02007409413FF1FD012FF1F56
:101950009013FF1F98200740942007406813FF1F33
:10196000A013FF1F882007408020074090200740D9
:1019700042F22104A14200F0948043D8B1F5086FEF
:1019800000F0A881B1F5106F40F0FD80B84AB94C65
:10199000A978117004F1800503E00834AC4200F02E
:1019A0009E81236A1906F8D5606A083800F00AFBA0
:1019B000F3E7BEF1400F18BF002243E7AE4ACD1D4A
:1019C00011F8013B02F8013FA942F9D1AB4A126874
:1019D000862A00F01181AA49AA4E0A78307882F04E
:1019E0000105002842F002020D700CBF8821C821B9
:1019F00047F8321007EBC20280F00100002130707E
:101A0000516033E742F22124A14240F0FE81DFF829
:101A1000BCC29D4B9D49AC78DCF800501D608146EE
:101A20000C700020029080468446044694490D784C
:101A300045F0020E07EBCE03B9F1000F5C600CBF5E
:101A40008824C82444EA080385F0010447F83E309E
:101A500032700C70DFF81CE28A4BDFF82482002819
:101A600040F09880BCF1400F1BD144F0020407EB1A
:101A7000C403029FDFF8FCE15F60002A40F09F8012
:101A8000020442F0880207444EF8342086F80090A1
:101A90000D703B46402804D100207D4A01991080FA
:101AA0000B607C4A01231370E3E600F0F7FB3FE68E
:101AB000704B784872491A614FF0020E80F800E0CE
:101AC000754F0A70754919609960754E754D764C61
:101AD0009A610D213970FF213170DFF8F4E129702E
:101AE0002270724D724A8EF800109F27012406F86A
:101AF000047C5D600470DA6007B0BDE8F08F6D4A69
:101B000047F83800137801331370F1E543F82600E5
:101B1000694DD4E58B5D032B67D801A252F823F001
:101B2000F1160000F1160000751B00006F1B00008D
:101B300059495C4B80220D2008701A70A2077FF56E
:101B4000D8AECFE640F20232914240F05681A988E9
:101B500001F07F01042916D86A88A2B94E4C890089
:101B60000C448146217841F00201217059E701239C
:101B70008B55BDE500238B55BAE5A98801F07F019F
:101B8000042940F24781444B0F221A70414A012335
:101B900013706EE640287FF668AF44F002040EEB47
:101BA000C401029E4E60AAB1444A83F800903346B5
:101BB000403888F8005040334EF834206DE7020476
:101BC000029B86F8009042F0C8020D7003444EF864
:101BD00034205FE783F80090029B304A88F8005079
:101BE000403840334EF8342057E719F0080F0CBF47
:101BF000022303238B557BE5314A0F211170EAE65E
:101C0000304A5468002CBED06888B5F804E003E080
:101C10000C325468002CB6D013888342F8D1538814
:101C20007345F5D1000A03280CBF2078108903E022
:101C3000254C022022706270EA88824280F00C817A
:101C40000F490D78402A45F0020E944607EBCE006E
:101C500028BF4FF0400C04EB0C0344600293CCEB24
:101C600002004FEA0C484FF001090022C824E9E6BF
:101C70009C13FF1F0000FF1F7B16FF1F7C16FF1F1A
:101C80009013FF1F2413FF1F8416FF1FB413FF1FA1
:101C9000D012FF1F94200740C0200740880040005A
:101CA000882007408020074098200740D412FF1F5B
:101CB0002813FF1F9113FF1FC012FF1FC800400011
:101CC0002513FF1F847F00009413FF1F2012FF1FA6
:101CD0008C200740684A694C12782270ACE768494A
:101CE000684B694A02916949694C6A4D03940596AB
:101CF0004FF0000988461C4616460495206828B116
:101D0000456800F05FF92846002DF9D100232360D3
:101D1000049B30681A46002342F8293028B14568F0
:101D200000F050F92846002DF9D100223260029AC5
:101D300098F800301146002241F8042B039A0291D2
:101D4000023B4FF0000122F81910032B07D8DFE8FF
:101D500003F0340234024FF0010388F8003009F137
:101D60000109B9F1040F04F1040406F1040608F1B5
:101D70000108C3D1484B059EDFF83091DFF8308170
:101D800000211970012518F8013B09F8043B1A07D6
:101D900018D4AC0044F0020244F00304002347F8D6
:101DA000323047F834303D4B994505F10105EAD111
:101DB00096F8009089F0010233E64FF0000388F8AE
:101DC0000030CCE700F0DEF8AC0007EB451300F183
:101DD0000802002837D05A60314B47F8343000F001
:101DE000D1F844F0010307EBC30200F1080100B38E
:101DF00051602C4A47F83320CCE7B1F5A06F7FF44F
:101E0000C2AE00224FF001090BE642F221329142AC
:101E1000F7D0B8E66A88002A7FF4B5AE224C890074
:101E20000C448146217821F002012170F9E502205D
:101E300002E7194B44F001021B7847F83200164ABA
:101E400001331370A6E7144B134A1B78AC0001331F
:101E500047F834001370C2E74028844628BF4FF08B
:101E6000400C04EB0C03CCEB00004FEA0C4802934F
:101E700000224FF00109D9E59C13FF1F9413FF1FA7
:101E80007813FF1F1413FF1F6813FF1FA013FF1FFA
:101E90007416FF1FC012FF1F9113FF1FD4200740AD
:101EA00088004000C8004000C0200740C420074010
:101EB000807F00002DE9F041274C01F027F8002237
:101EC00004F1880023461A605A60083383424FF0B9
:101ED0000001F8D12148224A0368DFF89CE0214E36
:101EE000214D224FDFF894C0DFF8948043F4802323
:101EF0000360136843F04073136003238EF80030CF
:101F0000A023337002F5C922C4F3072300F528305B
:101F10002B708030C4F3074310323B70240EFF2334
:101F20000470134D8CF80030124888F8003013709C
:101F3000012306F8AC3C4FF400140EF8441C702644
:101F4000102107F82C3C2E70046082F8F810AEF1D6
:101F5000440EBDE8F08100BF0000FF1F3480044044
:101F600000D80040402107409C200740B020074097
:101F700035E400E004E100E0442107408020074010
:101F80008820074072B60D480268B2FA82F30B2B24
:101F900010DC4FF00041D94022EA0102026062B633
:101FA000074803EBC303DB00C2180021C1501046F1
:101FB0005160704762B60020704700BF4407FF1FA2
:101FC000D003FF1F0D4B0E4AC31AA2FB03231B09AC
:101FD0000B2B0CD80B4A127852B972B60A484FF044
:101FE0000041026821FA03F31A43026062B67047A7
:101FF000064A1278002AF0D0FFF7ACBAD003FF1FD0
:10200000398EE3389113FF1F4407FF1F9C13FF1FF6
:1020100038B50F4D286878B143880288C11801335C
:1020200093420C7A02D24380204638BDFFF7CAFFA4
:10203000002320462B6038BD064B1B782BB10320B4
:10204000FFF754FA28600028E6D14FF0FF3038BD82
:10205000B013FF1F9C13FF1F10B5094C206818B167
:1020600043881844007A10BD064B1B782BB103201F
:10207000FFF73CFA20600028F2D14FF0FF3010BD8E
:10208000B013FF1F9C13FF1F044B054A1B68908869
:102090001BB11A885B88D31A18447047B013FF1F0E
:1020A0007416FF1F0B4B1B789BB110B50A4C2068B0
:1020B00048B1FFF787FF002303202360FFF716FADC
:1020C00030B1FFF77FFF0320FFF710FA0028F8D1A7
:1020D00010BD70479C13FF1FB013FF1F2DE9F04F79
:1020E000DFF8F89083B0012289F80020019169B3EC
:1020F000DFF8EC80354F019E8346D8F80000B0B37E
:10210000334D4488C4F14001B14228BF314604EB4D
:10211000010E00221FFA8EFE2A70761AA0F802E045
:1021200000F1080251B1013C224459441BF8014B13
:1021300002F8014F8B45F9D1B0F802E0BEF13F0F34
:102140000BD8244A05211170002ED6D10198002306
:1021500089F8003003B0BDE8F08F402202800146CC
:102160000420FFF739FA0022C8F80020E9E73A789E
:1021700022B3194C164D4FF0010A07E0013C16D06E
:102180002A78A2B900F0D0F93A78BAB10420FFF762
:10219000CBF90728F2D889F800A0FFF7F3FEC8F8BA
:1021A00000000028ADD10D4B013C1870E8D101238F
:1021B0004FF0FF302B7003B0BDE8F08F00234FF0DD
:1021C000FF3089F8003003B0BDE8F08F9C13FF1F8B
:1021D000AC13FF1FA413FF1F21480100A513FF1F0D
:1021E000A813FF1F00B583B002AB012103F8010D56
:1021F0001846FFF773FF03B05DF804FB38B50E4DCA
:102200000E4C28680123237028B1408800232370D6
:10221000C0F1400038BD0A4B1B7813B90020207074
:1022200038BD0420FFF780F90728F7D8FFF7AAFE8A
:1022300028600028E9D1F1E7A813FF1FA513FF1FAD
:102240009C13FF1FF8B5114B1B788BB1104E114D2D
:10225000346801272F7064B10F4A63880027177014
:10226000214623800420FFF7B7F9376000232B7045
:10227000F8BDFFF787FE084B28B1014604201C700B
:10228000FFF7AAF9F2E71F70F0E700BF9C13FF1FEA
:10229000A813FF1FA513FF1FA413FF1F38B50E4B74
:1022A0001B7873B90D4C216861B103F0FF054B88B1
:1022B0000B800420FFF790F9256038BD084B012200
:1022C0001A7038BDFFF75EFE0028F7D00146BDE862
:1022D00038400420FFF780B9A513FF1FA813FF1F84
:1022E000A413FF1F0368C9B21B6818470368C9B26B
:1022F0001B6818470368C9B21B6818470368C9B24E
:102300001B68184708B50846FEF75CFF012008BDAA
:1023100008B50846FEF756FF012008BD38B5084647
:102320000D4602F08DF9044601462846FEF754FF9B
:10233000204638BD10B5084614461146FEF74CFF3E
:10234000204610BDFFF726B808B50846FEF712FF75
:10235000003018BF012008BD08B50846FEF7E8FEAA
:10236000003018BF012008BD08461146FEF75CBECC
:102370000846FEF7A3BE00BF0846FEF739BE00BF01
:10238000FEF7C6BD034B03EB5100B0FBF1F0FEF7C7
:1023900001BD00BF002A751510B5064B144603EBAE
:1023A0005100B0FBF1F0FEF7F5FC2046BDE810400F
:1023B000FEF778BD002A7515FEF7D4BFFEF79EBF65
:1023C000FEF78CBFFEF76CBFFEF776BF704700BF0D
:1023D00008B5FEF74BF8FEF753F800F0A5F8FAE75A
:1023E00000B5064A036812885B6883B001A9ADF89E
:1023F00004200222984703B05DF804FB547F0000DC
:10240000F0B507468BB0002A33D0012A08BF0A2254
:1024100051B3212400E0F4B2B1FBF2F502FB151137
:10242000C8B2092900F1300198BFC8B20AA988BF13
:102430003730214488BFC0B201F8240C661E2946FB
:10244000002DE8D133B1013CE4B20AAB23442D2284
:1024500003F8242C3B6801AA11195B683846C4F1C3
:10246000220298470BB0F0BD30228DF825202124A0
:10247000E8E70368C9B21B6898470BB0F0BD00BF1E
:102480000029BABF49422D2300230A22FFF7B8BF13
:1024900070B50E4D82B02B680093009E044608E094
:1024A00000F042F82B680193019BA2689B1B9342AA
:1024B00007D2236820465B6998470028F0DB02B00A
:1024C00070BD4FF0FF3002B070BD00BF2012FF1F83
:1024D000F8B5164682B107460D46002404E00134E3
:1024E000A64205F8010B07D03846FFF7D1FF0028B8
:1024F000F5DA012326463B733046F8BDFFF7D2BD1F
:10250000FFF7AABDFFF784BDFFF7BEBDFFF79ABE78
:10251000FFF774BE08461146FFF7E0BD0846FFF717
:1025200061BE00BF704700BF38B52C4C237803B1A3
:1025300038BD01232370FFF7A7FD002842D1FEF725
:10254000CDFE00283BD100F055FA002834D100F030
:10255000E7FA70BB00F060FB40BB00F0D9FB10BB9A
:1025600000F052FCE0B900232370EFF30583002B49
:10257000DED1EFF3108172B6194B186828B3194CED
:10258000227812BB45691D60012323700DB3AA6137
:1025900001B962B600254577836898472570C7E77B
:1025A00000F0F8FDDFE700F0F3FDD9E700F0EEFD05
:1025B000D3E700F0E9FDCDE700F0E4FDC7E7FFF762
:1025C00005FFC0E7FFF7AEFFB9E70029B0D162B65B
:1025D00038BD054B1D600029DCD1DAE7B513FF1FBC
:1025E0003416FF1F3816FF1F3016FF1F844641EABE
:1025F000000313F003036DD1403A41D351F8043B7B
:1026000040F8043B51F8043B40F8043B51F8043BCC
:1026100040F8043B51F8043B40F8043B51F8043BBC
:1026200040F8043B51F8043B40F8043B51F8043BAC
:1026300040F8043B51F8043B40F8043B51F8043B9C
:1026400040F8043B51F8043B40F8043B51F8043B8C
:1026500040F8043B51F8043B40F8043B51F8043B7C
:1026600040F8043B51F8043B40F8043B51F8043B6C
:1026700040F8043B51F8043B40F8043B403ABDD2DB
:10268000303211D351F8043B40F8043B51F8043B7D
:1026900040F8043B51F8043B40F8043B51F8043B3C
:1026A00040F8043B103AEDD20C3205D351F8043B0C
:1026B00040F8043B043AF9D2043208D0D2071CBFD8
:1026C00011F8013B00F8013B01D30B880380604601
:1026D000704700BF082A13D38B078DD010F0030377
:1026E0008AD0C3F10403D21ADB071CBF11F8013BE7
:1026F00000F8013B80D331F8023B20F8023B7BE736
:10270000043AD9D3013A11F8013B00F8013BF9D260
:102710000B7803704B7843708B78837060467047FA
:1027200030B42948294A2A4B2A4D6024E1210470FB
:1027300011701B78284C082B30D00A2B27482849C9
:1027400037D00C2B0CBF35225D2212232A60236068
:1027500002600B60234B24491B78244ABBB1012340
:102760000B601360224B23491B78234A012B26D987
:10277000042B0FD9082B1ED9102B94BF8623872337
:102780000B6013601D4B01221A7030BC70470B6048
:102790001360E7E784230B601360F3E700F58E20F6
:1027A0000F490830212213232A60236002600B6046
:1027B000D0E73922F7E785230B601360E2E7802337
:1027C0000B601360DEE700BF004007400140074098
:1027D0006807FF1F08B003400CB0034008B00B406F
:1027E0000CB00B40B713FF1F20B0034020B00B40CC
:1027F0006907FF1F24B0034024B00B40B613FF1F2E
:102800000A4A0B49136843F4805313600B7843B1B1
:10281000084B80221A7080F30C00074B00B218801E
:102820007047044BC0221A70F5E700BF2C800440AB
:10283000B713FF1F21C00C4000C00C400A4A0B49CF
:10284000136843F4005313600B7843B1084B8022A4
:102850001A7080F30C00074B00B218807047044BCD
:10286000C0221A70F5E700BF2C800440B713FF1F89
:1028700021D00C4000D00C4008B5104C08E0236873
:1028800059050DD423681A050FD42368DB0411D42D
:1028900023685803F3D5FEF7E1FE23685905F1D507
:1028A000FEF79EFD23681A05EFD500F0B3F8236804
:1028B000DB04EDD500F044F9EAE700BF34800440C2
:1028C00008B5FFF7D9FF00BF014B10221A807047EF
:1028D00000200540704700BF094908B50B6830B1BA
:1028E0006A461844A2F50052904202D20860184687
:1028F00008BD01F0B9F80C2303604FF0FF3008BDAC
:102900006C07FF1FEFF3138070B9EFF310836BB9FF
:10291000EFF305825AB94FF48070EFF311832BB1B6
:10292000984228BF184670474FF0FF3070470F2A73
:1029300001D81846F1E7014BD05CEEE7F0E300E088
:10294000084A1378802B01D0002070470649074BB6
:1029500007480860002119701378802BFCD00120F3
:10296000704700BF03E007404480044001E0074097
:1029700000002822094A1378012B01D0002070475B
:1029800003F1804303F5FC23602119701378802B39
:10299000FCD1034B034A1A600120704703E0074053
:1029A0004480044000000602F0B44D1E2E46002470
:1029B00000E00134B0FBF2F302FB1300092800F140
:1029C00030078ABF3730F8B2C0B206F8010F184698
:1029D000002BEED10A1953704CB1107815F8016F25
:1029E00028700133E01A834202F80169F5DB0846DA
:1029F000F0BC7047054A064B10781B78C0B2DBB2BA
:102A0000984238BF4030C01A704700BF2814FF1FDB
:102A1000BD13FF1FF0B4384B1A7912F0300F2CD0D1
:102A200072B6997D01F0FF0200293DD062B6334FA6
:102A3000334938780D78334E1C46C0B2EDB2431C92
:102A4000402BE17928BF0023AB4202F1FF32C9B22B
:102A50001CBFF154184612F0FF02F0D12A4B1B683C
:102A6000C2B23A704BB1A84236BFC5F14005401B17
:102A700040192728C4BF01221A701F49CA78D2B250
:102A8000150616D452060DD51B4B1B795B0609D5CE
:102A90001E4B1F491B6800220A7003B11A70164BA7
:102AA0003C22DA70F0BC70474022D9795A7462B681
:102AB000E3E70B791C06E5D5164B174E1C783378E7
:102AC000E4B2DBB29C420ED0144D01E0A3420AD026
:102AD0000133282B28BF00230879E85CC0B2C871F5
:102AE000087D0728F2D9DBB2034933700B79180649
:102AF00044BF7C23CB70C5E700B006402814FF1FFD
:102B0000BD13FF1FE813FF1FB813FF1F2C14FF1F77
:102B1000BC13FF1F3014FF1F2914FF1FC013FF1F1A
:102B2000054A064B10781B78C0B2DBB2984238BF1A
:102B30004030C01A704700BF3814FF1F3914FF1F00
:102B400030B42B4B1A7994061FD52A48DA790378CA
:102B5000294901333F2B0978C8BF00238B42D2B2E9
:102B600003D0264CD9B2E2540170254A116861B1F4
:102B7000244A1278D2B2934236BFC2F140029B1A65
:102B80009B18272BC4BF01230B70194AD378DBB2E3
:102B9000180611D45A060DD5154B1B795B0609D5BD
:102BA000194B1A491B6800220A7003B11A70104BA6
:102BB0002C22DA7030BC704711790906EAD5144925
:102BC00010480C780178C9B28C420DD04A1C272AD3
:102BD00084BF00210A460F4D054C98BFD1B2AA5CB4
:102BE000D2B2E2710170D5E76C21D170D2E700BF9B
:102BF00000C006403814FF1F3914FF1F6414FF1F64
:102C00003414FF1FA514FF1FA814FF1FA414FF1FD7
:102C1000AC14FF1F3C14FF1F054A064B10781B78AD
:102C2000C0B2DBB2984238BF4030C01A704700BF14
:102C3000B414FF1FB514FF1F30B42B4B1A79940640
:102C40001FD52A48DA790378294901333F2B0978BF
:102C5000C8BF00238B42D2B203D0264CD9B2E25473
:102C60000170254A116861B1244A1278D2B29342A8
:102C700036BFC2F140029B1A9B18272BC4BF012309
:102C80000B70194AD378DBB2180611D45A060DD549
:102C9000154B1B795B0609D5194B1A491B68002295
:102CA0000A7003B11A70104B2C22DA7030BC7047D6
:102CB00011790906EAD5144910480C780178C9B28F
:102CC0008C420DD04A1C272A84BF00210A460F4D92
:102CD000054C98BFD1B2AA5CD2B2E2710170D5E7BF
:102CE0006C21D170D2E700BF00D00640B414FF1FA2
:102CF000B514FF1FE014FF1FB014FF1F2115FF1FA5
:102D00002415FF1F2015FF1F2815FF1FB814FF1FD4
:102D1000054A064B10781B78C0B2DBB2984238BF28
:102D20004030C01A704700BF3015FF1F3115FF1F1C
:102D300030B42B4B1A7994061FD52A48DA790378D8
:102D4000294901333F2B0978C8BF00238B42D2B2F7
:102D500003D0264CD9B2E2540170254A116861B102
:102D6000244A1278D2B2934236BFC2F140029B1A73
:102D70009B18272BC4BF01230B70194AD378DBB2F1
:102D8000180611D45A060DD5154B1B795B0609D5CB
:102D9000194B1A491B6800220A7003B11A70104BB4
:102DA0002C22DA7030BC704711790906EAD5144933
:102DB00010480C780178C9B28C420DD04A1C272AE1
:102DC00084BF00210A460F4D054C98BFD1B2AA5CC2
:102DD000D2B2E2710170D5E76C21D170D2E700BFA9
:102DE00000A00E403015FF1F3115FF1F5C15FF1F9F
:102DF0002C15FF1F9D15FF1FA015FF1F9C15FF1F02
:102E0000A415FF1F3415FF1F054A064B10781B78C9
:102E1000C0B2DBB2984238BF4030C01A704700BF22
:102E2000AC15FF1FAD15FF1F30B42C4B5A68940230
:102E30001FD52B48DA6803782A4901333F2B0978DC
:102E4000C8BF00238B4204D0274CD2B2D9B2E2547F
:102E50000170264A116861B1254A1278D2B29342B4
:102E600036BFC2F140029B1A9B18272BC4BF012317
:102E70000B701A4A9368180202D55268110211D4D5
:102E80005A020DD5154B5B685B0209D5194B1A49DF
:102E90001B6800220A7003B11A70184B00221A60D6
:102EA00030BC7047164A124910780A78D2B2904264
:102EB0000DD00132272A84BF00200246114D074C55
:102EC00098BFD0B2AA5CD2B2E2600870D8E70E48D0
:102ED0000A4A0024012104601160D1E700400C403F
:102EE000AC15FF1FAD15FF1FD815FF1FA815FF1F3D
:102EF0001916FF1F1C16FF1F1816FF1F58018843C5
:102F00002016FF1FB015FF1F5C01884310B584B069
:102F100072B6FFF715FD184A184B19491160702257
:102F200080211A701A46197013781B06FCD5154BB0
:102F30001C68FFF71FFD62B6134B9C429CBF04EB5D
:102F4000840464002046114C01A90A22FFF72CFDDD
:102F500001A92046002311F8012B01333AB10A2BB5
:102F600020F8022FF7D11623237004B010BD5B00A8
:102F7000DBB2237004B010BD040002400000024028
:102F8000000007410C0002407F969800FC07FF1FDD
:102F900010B4EFF3108272B6437F33B9017F012979
:102FA00008D0032910D00123437702B962B65DF837
:102FB000044B7047114C2168A1B1114943610B6862
:102FC000836108605861EEE70E4C216881B10E49BB
:102FD00043610B688361086058610C4B4FF080516E
:102FE0001960E0E7064B4161816120601860DAE713
:102FF000054B4161816120601860EEE73416FF1FC8
:103000003016FF1F2416FF1F2816FF1F04ED00E0D7
:1030100010B4047F4160022CC26003D05DF8044B01
:10302000FFF7B6BF83685DF8044B184770B5EFF340
:10303000108272B60C4C206880B10C4E002543699A
:10304000236073B19D6102B962B645778368984782
:10305000EFF3108272B620680028F0D102B962B690
:1030600070BD3360EFE700BF2416FF1F2816FF1F57
:10307000FFF7DCBF184A30B41468002C27D003686F
:1030800021688B420ED2CB1A00218460C16023607C
:10309000E06010600223037530BC704711688B42FA
:1030A000144608D3A2685B1A0360002AF6D1826036
:1030B000C460A060EEE7D268C2608460E060C5686A
:1030C000CB1A0222A8602360027530BC704784606E
:1030D000C4601060DEE700BF2C16FF1FF8B5224E5B
:1030E00034682CB32368002B3AD1204F1D4604E0EE
:1030F0003468ECB12368002B32D1A36803B1DD60E2
:1031000020693360036825751B68BB4221D1037FAA
:103110004560022BC46020D0FFF73AFF6368002BA4
:10312000E6D023602046FFF7A5FF3468002CE1D1EC
:10313000EFF3108372B60E4A00211068116003B9D4
:1031400062B628B18468FFF795FF20460028F9D1C0
:10315000F8BD224600219847E0E783689847DDE7FD
:10316000013B2360E4E700BF2C16FF1F1130000075
:103170003C16FF1F024A136801331360FFF7AEBF0E
:103180002012FF1F704700BF704700BF704700BF8D
:10319000704700BF704700BF81F0004102E000BFF0
:1031A00083F0004330B54FEA41044FEA430594EA07
:1031B000050F08BF90EA020F1FBF54EA000C55EA42
:1031C000020C7FEA645C7FEA655C00F0E2804FEA13
:1031D0005454D4EB5555B8BF6D420CDD2C4480EAF5
:1031E000020281EA030382EA000083EA010180EA25
:1031F000020281EA0303362D88BF30BD11F0004F73
:103200004FEA01314FF4801C4CEA113102D04042A8
:1032100061EB410113F0004F4FEA03334CEA1333E3
:1032200002D0524263EB430394EA050F00F0A780FB
:10323000A4F10104D5F1200E0DDB02FA0EFC22FAF6
:1032400005F2801841F1000103FA0EF2801843FAEA
:1032500005F359410EE0A5F120050EF1200E012ADB
:1032600003FA0EFC28BF4CF0020C43FA05F3C01819
:1032700051EBE37101F0004507D54FF0000EDCF192
:10328000000C7EEB00006EEB0101B1F5801F1BD33B
:10329000B1F5001F0CD349085FEA30004FEA3C0C3F
:1032A00004F101044FEA445212F5800F80F09A8035
:1032B000BCF1004F08BF5FEA500C50F1000041EB39
:1032C000045141EA050130BD5FEA4C0C404141EB3D
:1032D000010111F4801FA4F10104E9D191F0000F64
:1032E00004BF01460020B1FA81F308BF2033A3F1E7
:1032F0000B03B3F120020CDA0C3208DD02F1140CDE
:10330000C2F10C0201FA0CF021FA02F10CE002F118
:103310001402D8BFC2F1200C01FA02F120FA0CFC11
:10332000DCBF41EA0C019040E41AA2BF01EB04515A
:10333000294330BD6FEA04041F3C1CDA0C340EDC58
:1033400004F11404C4F1200220FA04F001FA02F39B
:1033500040EA030021FA04F345EA030130BDC4F159
:103360000C04C4F1200220FA02F001FA04F340EA4E
:103370000300294630BD21FA04F0294630BD94F0FF
:10338000000F83F4801306BF81F480110134013DE6
:103390004EE77FEA645C18BF7FEA655C29D094EA57
:1033A000050F08BF90EA020F05D054EA000C04BFD5
:1033B0001946104630BD91EA030F1EBF00210020C0
:1033C00030BD5FEA545C05D14000494128BF41F05F
:1033D000004130BD14F580043CBF01F5801130BDC3
:1033E00001F0004545F0FE4141F470014FF000004E
:1033F00030BD7FEA645C1ABF194610467FEA655CFF
:103400001CBF0B46024650EA013406BF52EA0335A0
:1034100091EA030F41F4002130BD00BF90F0000F8E
:1034200004BF0021704730B54FF4806404F13204CA
:103430004FF000054FF0000150E700BF90F0000F83
:1034400004BF0021704730B54FF4806404F13204AA
:1034500010F0004548BF40424FF000013EE700BF7A
:1034600042004FEAE2014FEA31014FEA02701FBF0A
:1034700012F07F4393F07F4F81F06051704792F0DC
:10348000000F14BF93F07F4F704730B54FF4607456
:1034900001F0004521F0004120E700BF50EA0102A1
:1034A00008BF704730B54FF000050AE050EA01024E
:1034B00008BF704730B511F0004502D5404261EBBE
:1034C00041014FF4806404F132045FEA915C3FF4FF
:1034D000DCAE4FF003025FEADC0C18BF03325FEA98
:1034E000DC0C18BF033202EBDC02C2F1200300FA4D
:1034F00003FC20FA02F001FA03FE40EA0E0021FA72
:1035000002F11444C1E600BF70B54FF0FF0C4CF45B
:10351000E06C1CEA11541DBF1CEA135594EA0C0F11
:1035200095EA0C0F00F0DEF82C4481EA030621EA4C
:103530004C5123EA4C5350EA013518BF52EA033587
:1035400041F4801143F4801338D0A0FB02CE4FF039
:103550000005E1FB02E506F00042E0FB03E54FF069
:103560000006E1FB03569CF0000F18BF4EF0010E61
:10357000A4F1FF04B6F5007F64F5407404D25FEA5D
:103580004E0E6D4146EB060642EAC62141EA555110
:103590004FEAC52040EA5E504FEACE2EB4F1FD0C52
:1035A00088BFBCF5E06F1ED8BEF1004F08BF5FEAD0
:1035B000500E50F1000041EB045170BD06F0004682
:1035C00046EA010140EA020081EA0301B4EB5C042F
:1035D000C2BFD4EB0C0541EA045170BD41F4801127
:1035E0004FF0000E013C00F3AB8014F1360FDEBF4C
:1035F000002001F0004170BDC4F10004203C35DA28
:103600000C341BDC04F11404C4F1200500FA05F3AA
:1036100020FA04F001FA05F240EA020001F000424B
:1036200021F0004110EBD37021FA04F642EB0601C1
:103630005EEA430E08BF20EAD37070BDC4F10C04EB
:10364000C4F1200500FA04F320FA05F001FA04F2AF
:1036500040EA020001F0004110EBD37041F100019B
:103660005EEA430E08BF20EAD37070BDC4F12005A6
:1036700000FA05F24EEA020E20FA04F301FA05F20E
:1036800043EA020321FA04F001F0004121FA04F2B6
:1036900020EA020000EBD3705EEA430E08BF20EA86
:1036A000D37070BD94F0000F0FD101F000464000C0
:1036B00041EB010111F4801F08BF013CF7D041EA42
:1036C000060195F0000F18BF704703F00046520046
:1036D00043EB030313F4801F08BF013DF7D043EA17
:1036E0000603704794EA0C0F0CEA135518BF95EACD
:1036F0000C0F0CD050EA410618BF52EA4306D1D154
:1037000081EA030101F000414FF0000070BD50EA72
:10371000410606BF1046194652EA430619D094EAFC
:103720000C0F02D150EA013613D195EA0C0F05D1E6
:1037300052EA03361CBF104619460AD181EA03013A
:1037400001F0004141F0FE4141F470014FF00000F2
:1037500070BD41F0FE4141F4780170BD70B54FF08D
:10376000FF0C4CF4E06C1CEA11541DBF1CEA13550D
:1037700094EA0C0F95EA0C0F00F0A7F8A4EB0504EF
:1037800081EA030E52EA03354FEA013100F08880E6
:103790004FEA03334FF0805545EA131343EA1263AF
:1037A0004FEA022245EA111545EA10654FEA002664
:1037B0000EF000419D4208BF964244F1FD0404F51D
:1037C000407402D25B084FEA3202B61A65EB030579
:1037D0005B084FEA32024FF480104FF4002CB6EB36
:1037E000020E75EB030E22BFB61A754640EA0C00B6
:1037F0005B084FEA3202B6EB020E75EB030E22BFF6
:10380000B61A754640EA5C005B084FEA3202B6EB36
:10381000020E75EB030E22BFB61A754640EA9C00F5
:103820005B084FEA3202B6EB020E75EB030E22BFC5
:10383000B61A754640EADC0055EA060E18D04FEA83
:10384000051545EA16754FEA06164FEAC30343EA23
:1038500052734FEAC2025FEA1C1CC0D111F4801FF0
:103860000BD141EA00014FF000004FF0004CB6E7E9
:1038700011F4801F04BF01430020B4F1FD0C88BF88
:10388000BCF5E06F3FF6AFAEB5EB030C04BFB6EB93
:10389000020C5FEA500C50F1000041EB045170BD86
:1038A0000EF0004E4EEA113114EB5C04C2BFD4EBB3
:1038B0000C0541EA045170BD41F480114FF0000E37
:1038C000013C90E645EA060E8DE60CEA135594EAB3
:1038D0000C0F08BF95EA0C0F3FF43BAF94EA0C0FB6
:1038E0000AD150EA01347FF434AF95EA0C0F7FF42B
:1038F00025AF104619462CE795EA0C0F06D152EA7F
:1039000003353FF4FDAE1046194622E750EA410662
:1039100018BF52EA43067FF4C5AE50EA41047FF473
:103920000DAF52EA43057FF4EBAE12E74FF0FF3CD8
:1039300006E000BF4FF0010C02E000BF4FF0010CA9
:103940004DF804CD4FEA410C7FEA6C5C4FEA430C22
:1039500018BF7FEA6C5C1BD001B050EA410C0CBF71
:1039600052EA430C91EA030F02BF90EA020F0020D3
:10397000704710F1000F91EA030F58BF994208BF3A
:1039800090422CBFD8176FEAE37040F001007047F7
:103990004FEA410C7FEA6C5C02D150EA013C07D14E
:1039A0004FEA430C7FEA6C5CD6D152EA033CD3D099
:1039B0005DF8040B704700BF8446104662468C4693
:1039C0001946634600E000BF01B5FFF7B7FF0028C6
:1039D00048BF10F1000F01BD4DF808EDFFF7F4FFEF
:1039E0000CBF012000205DF808FB00BF4DF808ED7A
:1039F000FFF7EAFF34BF012000205DF808FB00BF9D
:103A00004DF808EDFFF7E0FF94BF012000205DF8BE
:103A100008FB00BF4DF808EDFFF7CEFF94BF012073
:103A200000205DF808FB00BF4DF808EDFFF7C4FF6C
:103A300034BF012000205DF808FB00BF4FEA410CB5
:103A40007FEA6C5C02D150EA013C0AD14FEA430C98
:103A50007FEA6C5C02D152EA033C02D14FF00000D5
:103A600070474FF001007047014B1868704700BF66
:103A7000400CFF1F70B50F4E0F4D761BB61018BFD0
:103A8000002405D0013455F8043B9847A642F9D1EB
:103A90000A4E0B4D761B04F0E5FBB61018BF002450
:103AA00006D0013455F8043B9847A642F9D170BDC1
:103AB00070BD00BF70820000708200007C82000038
:103AC00070820000024B0146186800F003B800BF86
:103AD000400CFF1F2DE9F04F01F10B05162D83B0AF
:103AE000064640F29F8035F0070500F1BF80A942ED
:103AF00000F2BC8000F06EFBB5F5FC7FC0F09C824C
:103B00006B0A00F0BA80042B00F28381A80900F14F
:103B1000390E4FEA4E033830C44F07EB8303A3F14D
:103B200008015C68A14207D1ACE0002A80F2AC80B9
:103B3000E468A14200F0A680636823F003035A1BE7
:103B40000F2AF2DDB9493C6901F1080E744500F015
:103B5000B381636823F003035A1B0F2A00F3998192
:103B6000002AC1F814E0C1F810E080F29E80B3F59D
:103B7000007F80F06781DB0803F1010C01229B10BC
:103B800002FA03F34A6851F83C80C4F8088001EB5C
:103B9000CC091A43A9F10803E3604A6041F83C40AC
:103BA000C8F80C40831001249C40944200F28A80A3
:103BB000144206D120F003006400144200F1040016
:103BC000FAD007EBC009CC468046DCF80C108C45D7
:103BD00007D173E1002A80F28181C9688C4500F029
:103BE0006D814B6823F003035A1B0F2AF2DD0C464C
:103BF000D1F80CC054F8088F4B1945F001054D6001
:103C000042F00101C8F80CC03046CCF808807B6156
:103C10003B61C3F80CE0C3F808E059609A5000F02B
:103C2000DBFA1FE0102921D800F0D4FA1025062372
:103C300002207E4F07EB8303A3F108025C689442E5
:103C400000F045816368E168A56823F0030323441D
:103C500030465A68E96042F001028D605A6000F017
:103C6000BBFA0834204603B0BDE8F08F00240C23D3
:103C70002046336003B0BDE8F08F80234FF0400E44
:103C80003F2049E770465DE72344E1685A68A5682C
:103C900042F00102E96030468D605A6000F09CFA03
:103CA0000834204603B0BDE8F08F234430465A68FC
:103CB00042F001025A6000F08FFA0834204603B047
:103CC000BDE8F08FBC68636823F00308A84504D3FF
:103CD000C5EB08030F2B00F38C80554BDFF8609188
:103CE0001A68D9F8003001332A4404EB080A00F0BE
:103CF000608102F580520F3222F47F6222F00F02BF
:103D000011463046019200F059FCB0F1FF3F834666
:103D1000019A00F05881824500F2FC80454B1968F9
:103D2000DA451144196000F05381D9F80000DFF83A
:103D300010E101301BBFCAEB0B0A5144CEF800B0B2
:103D400019601BF0070100F01781C1F10800C1F5EF
:103D50008051834408315A44C2F30B02C2EB01097B
:103D600049463046019300F029FC431C019B00F0BA
:103D70003F81CBEB00024A4442F001021968C7F8C8
:103D800008B04944BC42CBF804201960DFF8A49085
:103D900016D0B8F10F0F40F2FD806268A8F10C0355
:103DA00023F00703E01802F001024FF0050E1A435A
:103DB0000F2B6260C0F804E0C0F808E000F21C813C
:103DC0001D4BBC681A68914288BF19601B4B1A686A
:103DD0009142626888BF196022F003029542A2EB0B
:103DE000050301D80F2B04DC304600F0F5F9002460
:103DF00038E7621943F0010345F00105656030467C
:103E0000BA60536000F0E8F90834204603B0BDE81A
:103E1000F08F142B71D9542B00F2A480280B00F1E1
:103E20006F0E4FEA4E036E3076E600BFB00DFF1FF7
:103E30004816FF1F4C16FF1F4416FF1F4016FF1F9A
:103E4000BC11FF1F5A0A042A5ED9142A00F2B3805B
:103E500002F15C0149005B3207EB810C57F821103D
:103E6000DFF8DC81ACF1080C8C4500F088804A68F2
:103E700022F00302934202D289688C45F7D1D1F82F
:103E80000CC07A68C4F80CC0A160CCF80840CC60C3
:103E900088E6631942F0010745F001056560304688
:103EA0004B610B61C3F80CE0C3F808E05F609A5007
:103EB000083400F091F9D5E64A6873E608F1010884
:103EC00018F0030F0CF1080C7FF47FAE30E0DC68D3
:103ED000A34208BF02303FF435AEB3E60B440C46B4
:103EE0005A68C96854F8085F42F001025A603046C7
:103EF000E9608D6000F070F9B4E603F15C0E03F147
:103F00005B004FEA4E0307E69A0902F139014900C6
:103F10003832A1E7BC424A4B3FF400AF9C6862686C
:103F200022F003025AE759F80839994540F0828097
:103F300010F0030F00F1FF30F5D17B6823EA040392
:103F40007B6064009C423FF6BDAE002C3FF4BAAEED
:103F50001C4240467FF435AE64001C4200F1040070
:103F6000FAD02EE6B3F5AA7F18D8E80B00F1780E48
:103F70004FEA4E037730CFE54FF48051EBE6012155
:103F8000D8F80430921001FA02F21A43C8F804205B
:103F9000614677E70123CBF8043025E740F254521D
:103FA000934220D8A80C00F17D0E4FEA4E037C30DE
:103FB000B2E51032A4E6542A26D81A0B02F16F019A
:103FC00049006E3248E7BC68626822F0030205E7E8
:103FD000CAF30B0000287FF4A8AE4244BB6842F04D
:103FE00001025A60ECE6FE234FF07F0E7E2093E53F
:103FF00001224FF00009C1E604F10801304602F049
:104000002FFFD9F80010DBE6B2F5AA7F05D8DA0B4E
:1040100002F17801490077321EE740F254518A429A
:1040200005D89A0C02F17D0149007C3214E7FE218B
:104030007E2211E77B6884E7E808431C5B00F8E513
:10404000B00DFF1F82B049B15AB16BB113780B604C
:104050001278101C18BF012002B0704701A9002A75
:10406000F3D1104602B070476FF00100F4E700BFD3
:104070008842F0B50DD98B1898420AD28118002ACF
:1040800051D09A1A13F8014D01F8014D9342F9D11C
:10409000F0BD0F2A48D941EA00039B0746D100F141
:1040A000100401F11003154653F8106C44F8106C1D
:1040B00053F80C6C44F80C6C53F8086C44F8086C1A
:1040C000103D53F8046C44F8046C0F2D03F11003F9
:1040D00004F11004E8D8A2F1100323F00F0302F05A
:1040E0000F0E1033BEF1030F1944034421D91E1FD4
:1040F0000D467446043C55F8047B46F8047F032CB7
:10410000F8D8AEF1040424F0030404342344214419
:1041100002F0030262B1013B0A4411F8014B03F8BB
:10412000014F8A42F9D1F0BD0346F3E70346F2E7B7
:10413000F0BD7246EEE700BF70B4840746D0541E4F
:10414000002A41D0CDB2034602E0621EE4B3144619
:1041500003F8015B9A07F8D1032C2ED9CDB245EABA
:1041600005250F2C45EA054519D903F1100226460D
:10417000103E0F2E42F8105C42F80C5C42F8085CCE
:1041800042F8045C02F11002F2D8A4F1100222F00D
:104190000F0204F00F041032032C13440DD91E46F5
:1041A0002246043A032A46F8045BFAD8221F22F07A
:1041B00003020432134404F003042CB1C9B21C44BA
:1041C00003F8011BA342FBD170BC704714460346A1
:1041D000C2E700BF704700BF704700BF2DE9F04F36
:1041E000174683B0002900F0C1800E46814607F1D2
:1041F0000B05FFF7EFFF56F804EC162D2EF0030425
:10420000A6F1080840D810221546AF4241D8944282
:1042100075DAC94B996808EB04008842416800F0E0
:10422000D98021F0010303445B68DB077DD51EF0D4
:10423000010F35D039464846FFF74CFC0746E0B140
:1042400056F8043C23F001034344A0F108029A42CB
:1042500000F04481221F242A00F23181132A00F247
:1042600004810346324611681960516859609268AA
:104270009A603146484602F0F3FD4846FFF7ACFF2E
:10428000384603B0BDE8F08F25F00705002D2A461B
:10429000BBDA0C230020C9F8003003B0BDE8F08F72
:1042A00056F8083CC3EB080ADAF8043023F0030C94
:1042B00004EB0C039342BDDB5746DAF80C1057F8B9
:1042C000080F221F242AC160886000F21781132A78
:1042D00040F212813168CAF808107168CAF80C10EF
:1042E0001B2A00F22B8108360AF110023168116096
:1042F00071685160B16891603E461C46D046631BB0
:104300000F2B1DD8D8F8043003F001032343444495
:10431000C8F80430636843F0010363604846FFF760
:104320005BFF304603B0BDE8F08F21F0030121446C
:10433000914221DBC36882680C46D3609A60DEE755
:10434000D8F8042008EB050102F00102154343F000
:1043500001020B44C8F804504A605A6842F0010256
:1043600008315A60484602F07BFDD7E7114603B09A
:10437000BDE8F04FFFF7AEBB1EF0010F7FF45AAF60
:1043800056F8083CC3EB080ADAF8043023F0030CB3
:1043900001EB0C0E96458BDBC36882685746D360F1
:1043A0009A6057F8081FDAF80C30CB60221F242AD5
:1043B000996000F29980132A62D93368CAF80830EC
:1043C0007368CAF80C301B2A00F2A08008360AF184
:1043D000100356E021F0030BA34405F110008345C0
:1043E00059DA1EF0010F7FF425AF56F8081CC1EB17
:1043F000080ADAF8041021F0030CE34458453FF7AB
:1044000057AF5746DAF80C1057F8080F221F242A26
:10441000C160886000F2B480132A40F2A580316840
:10442000CAF808107168CAF80C101B2A00F2AF8095
:1044300008360AF110023168116071685160B16884
:1044400091600AEB0501C5EB0B0242F00102996095
:104450004A60DAF8043003F001031D434846CAF805
:104460000450FFF7B9FE38465CE7336803607368B1
:1044700043601B2A27D800F1080306F10802F2E680
:104480003B4632681A6072685A60B2689A603E466B
:104490007446D04633E708EB0501C5EB0B0B4BF038
:1044A000010299604A6056F8043C03F001031D4381
:1044B000484646F8045CFFF78FFE304632E7314647
:1044C000FFF7D6FDD5E6B3688360F368C360242A9E
:1044D00028D000F1100306F11002C4E650F8043CA5
:1044E00023F003031C440AE7314638467446D0469D
:1044F000FFF7BEFD3E4602E73A46F7E6314638464C
:104500001C46D046FFF7B4FD3E46F8E6B368CAF84D
:104510001030F368CAF81430242A1BD010360AF180
:104520001803AEE7336903617369436106F118024A
:1045300000F1180397E600BFB00DFF1FB168CAF87D
:104540001010F168CAF81410242A0FD010360AF19E
:104550001802CBE63369CAF818307369CAF81C3000
:1045600018360AF120038CE73A4664E73269CAF844
:1045700018207269CAF81C2018360AF12002B5E624
:10458000314638460193FFF773FD019B59E7B16847
:10459000CAF81010F168CAF81410242A03D0103693
:1045A0000AF1180247E73269CAF818207269CAF896
:1045B0001C2018360AF120023DE700BF38B5074C31
:1045C0000023054608462360FEF786F9431C00D009
:1045D00038BD2368002BFBD02B6038BD8816FF1F29
:1045E0000EB4F0B59CB021AB0F4953F8042B0193E6
:1045F00005466FF00044086802954FF402774FF6C5
:10460000FF7602A90695ADF8147004940794ADF8EE
:10461000166000F085F8029B00221A701CB0BDE8FD
:10462000F04003B0704700BF400CFF1FFFFFFFFFCB
:10463000FFFFFFFFFFFFFFFFFFFFFFFFFFFFFFFF8A
:1046400090F800F06DE9024520F007016FF0000CD2
:1046500010F0070491F820F040F049804FF000047A
:104660006FF00700D1E9002391F840F000F1080055
:1046700082FA4CF2A4FA8CF283FA4CF3A2FA8CF38D
:104680004BBBD1E9022382FA4CF200F10800A4FAF4
:104690008CF283FA4CF3A2FA8CF3E3B9D1E9042348
:1046A00082FA4CF200F10800A4FA8CF283FA4CF37F
:1046B000A2FA8CF37BB9D1E9062301F1200182FA39
:1046C0004CF200F10800A4FA8CF283FA4CF3A2FA3F
:1046D0008CF3002BC6D0002A04BF04301A4612BA4D
:1046E000B2FA82F2FDE8024500EBD2007047D1E950
:1046F000002304F00305C4F100004FEAC50514F0DF
:10470000040F91F840F00CFA05F562EA05021CBFAF
:1047100063EA050362464FF00004A9E7FFFFFFFFCD
:104720002DE9F04FC1B00C46059115460A9306904D
:1047300002F07EFC036813931846FFF781FFA389FC
:1047400012901E0603D52369002B01F031819FEDE5
:10475000A67B00238DED107B0E9325932493159358
:104760000793DFF890A230AB23939946A84698F8B8
:1047700000304446EBB1252B02D11AE0252B03D0A3
:1047800014F8013F002BF9D1C8EB04058DB1249B2F
:10479000259AC9F8008001332A44072BC9F8045030
:1047A0002592249300F3A68009F10809079B2B4466
:1047B00007932378002B00F0A68000231A468DF87B
:1047C0006F301946089303934FF0FF3B637804F171
:1047D00001085D4608F10108A3F12000582800F205
:1047E0003484DFE810F0A00332043204A80332045A
:1047F00032043204320432043204AF03BD03320403
:104800005D00E200320409011001100110011001E5
:1048100010011001100110011001320432043204A1
:1048200032043204320432043204320432042001ED
:104830008602320486023204320432043204D40284
:1048400032043204E5023204320432043204320407
:104850000F03320432043D033204320432043204C2
:104860003204320432043204320432047E039103EF
:1048700086028602860299039103320432040704F9
:1048800032041204A3006400C2033204C9033204D8
:10489000EA0332043204F20308980A934042089073
:1048A000039B43F00403039398F8003092E70A98BF
:1048B000AB46002104688DF86F10071D0398302364
:1048C00078228B458DF870304FF000058DF87120FF
:1048D00040F00203C0F2D68320F0800343F00203CD
:1048E000039354EA05030A9700F0A2830F460D9242
:1048F0003F48E6E223AA0599069802F00BFF48B963
:104900000DF1C00952E7259B23B10698059923AA0A
:1049100002F000FF059B9B8913F0400F079B18BF17
:104920004FF0FF33184641B0BDE8F08F0D93AB4612
:10493000002A41F03382039A12F0200300F04682ED
:104940000A9F073727F00703002703F10801BB453B
:104950000A91D3E900458DF86F70C0F2628722F0AA
:104960008003039354EA050300F0848330AEE20829
:1049700042EA4572E90804F007030D461446303355
:1049800054EA050206F8013DF1D1039AD10740F13E
:104990008F80302B00F08C803022731E06F8012CA3
:1049A00030AAD21A09921E4685E098F800302A2BC8
:1049B00008F1010401F0E481A3F13000092898BF57
:1049C000002501F2868114F8013B05EB850500EB1B
:1049D0004505A3F130000928F5D945EAE575A0465B
:1049E000FAE600BFAFF30080000000000000000006
:1049F00020800000EC7F0000039B43F080030393C2
:104A000098F80030E6E6A3F1300000231C4618F8C1
:104A1000013B04EB840400EB4404A3F130000928BB
:104A2000F5D90894D8E60D93AB46002A41F0C4812D
:104A3000039B43F010030393039B9C0640F13785CF
:104A40000A9F073727F00707D7E9002307F1080176
:104A50000A9114461D46002A73F10003C0F26285D4
:104A6000BBF1000F9DF86F70C0F23F85039B23F0F0
:104A70008003039354EA050300F0E881002D08BF8A
:104A80000A2CC0F0E88130AE204629460A220023D5
:104A900002F06AFF303206F8012D20462946002335
:104AA0000A2202F061FF04460D4654EA0503EBD1E9
:104AB00030AB9B1B0993099B5B45B8BF5B460493D6
:104AC00000230F9317B1049B01330493039B13F04E
:104AD00002030B9302D0049B02330493039B13F055
:104AE00084030C9340F0DB82089B049A9D1A002DEE
:104AF00040F3D582102D2599249AA84F27DD1496CE
:104B000048461024B946059E2F46069D04E0103FF6
:104B1000102F00F1080016DD0132A04B2492103155
:104B2000072A259180E81800F1DD23AA314628469E
:104B300002F0F0FD00287FF4EDAE103F102F259914
:104B4000249A30A8E8DC149E3D464F468146013247
:104B50006C18072A25942492C9F80070C9F80450EB
:104B600000F32D849DF86F7009F1080977B1249B3B
:104B7000013301340DF16F010122072B2594249399
:104B800089E8060000F3A58309F108090B9B6BB1C6
:104B9000249B013302341CA90222072B2594249361
:104BA00089E8060000F3A18309F108090C9B802B1A
:104BB00000F0E182099BC3EB0B07002F33DD784A3D
:104BC000249B0B92102F22DD22464FF0100B069DE6
:104BD000059C04E0103F102F09F1080916DD013390
:104BE0001032072B2592249389E8000CF2DD23AACA
:104BF0002146284602F08EFD00287FF48BAE103F40
:104C0000102F259A249B0DF1C009E8DC14460133CE
:104C10000B9A24933C44072B259489E8840000F3E5
:104C20004C8309F10809039BDA0500F13A82249BC1
:104C30000999C9F8006001330C44072B2594C9F881
:104C40000410249300F3238309F10809039B5907F7
:104C50003FD5089B049A9D1A002D3ADD102D249B08
:104C60004E4F23DD22461026DDF818B0059C04E0E7
:104C7000103D102D09F1080917DD01334749249330
:104C80001032072B259289E84200F1DD23AA214644
:104C9000584602F03FFD00287FF43CAE103D102D39
:104CA000259A249B0DF1C009E7DC144601332C44FE
:104CB000072B25942493C9F80070C9F8045008DD27
:104CC00023AA0599069802F025FD00287FF422AE5C
:104CD000259C079B089A04998A42ACBF9B185B18D5
:104CE0000793002C40F0DF82002324930DF1C009CC
:104CF0003DE50D93AB46002A41F06280039B0A9F7D
:104D00001A0707F1070740F1748527F0070393EDB1
:104D1000007B8DED107B03F108020A92DDE9101291
:104D200022F0004316911793DDE916454FF0FF324C
:104D3000204629461B4BFEF781FE002840F0DA840E
:104D40004FF0FF32174B20462946FEF759FE002848
:104D500040F0D08400220023DDE91001FEF746FE7A
:104D6000002840F052879DF86F700F4E0F4B03994B
:104D700021F0800103910D9903224FF0000B049262
:104D80004729D8BF1E460992CDF83CB09AE6039B4E
:104D900043F00803039398F800301BE540800000BF
:104DA000EC7F0000FFFFEF7F00800000FC7F000031
:104DB0000D93AB46002A41F00F80039B43F0100394
:104DC0000393039A12F020037FF4BAAD039911F014
:104DD000100200F05B840A988DF86F30BBF1000F71
:104DE000046800F104074FF00005C0F219850A4677
:104DF00022F08002039254EA05020A9700F03A81F9
:104E00001F46B3E50D93AB46002A40F0E187039BB4
:104E100043F010030393039A12F0200300F02C8355
:104E20000A9F073727F00703002703F10801BB4556
:104E30000A91D3E900458DF86F70C0F2568322F0D5
:104E40008003039354EA05037FF418AEBBF1000F0F
:104E500000F0F580002440AE303406F8414D27E6DE
:104E60000D93AB46002A40F0AF87039BAF489D06E9
:104E700040F1B5800A9F073727F00703D3E90045C3
:104E800003F108020A92039A12F0010700F0398236
:104E900054EA050300F002859DF834208DF8712056
:104EA0000027039A8DF86F703023BB458DF8703062
:104EB00042F00203C0F2AE8622F0800343F0020308
:104EC000039330AE230904F00F0143EA05732A0966
:104ED0001C461546435C06F8013D54EA0503F1D132
:104EE000E6E50A990D930A688DF8982000230A4692
:104EF0001F468DF86F30043201230493BB460F9791
:104F00000A92099326AEE1E50D93AB46002A3FF4E1
:104F100093AD8DF86F108FE5039B43F0400303932F
:104F200098F8003056E498F8003000297FF452AC2D
:104F3000012220214EE4039B43F00103039398F8E0
:104F4000003047E40A9C236808931846002823464B
:104F500003F10403FFF6A0AC0A9398F8003039E49B
:104F600098F8003001222B2134E4039B43F0200306
:104F7000039398F800302DE40A9A0D9316680024E4
:104F80008DF86F40171D002E00F01C86002DC0F21A
:104F900061852A462146304602F05AF8002800F082
:104FA0006386831B0993A34623EAE3730A9704935A
:104FB000CDF83CB09DF86F7084E50D93AB46002AA8
:104FC0003FF429AF8DF86F1025E70D93AB46002A0B
:104FD00040F00E87039B56489D063FF54BAF039B61
:104FE000DC0640F13E840A9A1346043314680A939F
:104FF000002548E798F800306C2B00F0C284039835
:1050000040F010000390FFF7E5BB002A40F0EC866B
:10501000039B9B0640F157830A9A07991368CD17A3
:105020000846043229460A92C3E90001FFF79FBBF4
:105030003F480D92BBF1000F40F074815F464FF086
:10504000000BCDF824B030AE35E50D93002A40F0CA
:10505000C7860D9A002A3FF456AC002301211F4653
:1050600004918DF898208DF86F309B460F9309912D
:1050700026AE2BE5BBF1000F00F00E8600270024C2
:10508000002573E42A4803930D9254EA05030A9716
:105090004FF000077FF415AF0024002511E7259C91
:1050A00064E50D9B652B40F3AA8000220023DDE917
:1050B0001001FEF791FC002800F03681249B1D4A68
:1050C000C9F80020013301340122072B25942493D1
:1050D000C9F8042000F3EE8309F108091D9B0E9A1C
:1050E000934203DB039BDB077FF5B0AD249B129952
:1050F000139AC9F8002001330C44072B2594C9F8F2
:105100000410249300F3478409F108090E9B5D1EE7
:10511000002D7FF79BAD084A249B0B92102D40F386
:10512000E9811026069FDDF814B00DE00C80000028
:10513000208000003C800000EC7F000009F108099D
:10514000103D102D40F3D68101331034072B2594E8
:105150002493C9F800A0C9F80460EFDD23AA5946DA
:10516000384602F0D7FA00287FF4D4AB259C249B64
:105170000DF1C009E4E7089B049A9F1A002F7FF7FE
:1051800019ADBC4A249B0B92102F2BDD4A462146B9
:10519000B94610253746069C059E06E0A9F1100980
:1051A000B9F1100F02F1080218DD01331031072B9D
:1051B00025912493C2F800A05560EFDD23AA314663
:1051C000204602F0A7FA00287FF4A4ABA9F1100949
:1051D000B9F1100F2599249B30AAE6DC3E460C4617
:1051E0004F46914601330B9A24933C44072B259458
:1051F00089E8840000F33D8209F10809DAE40E9B96
:10520000249D012B40F30A82013501340123072D2F
:1052100025942495C9F80060C9F8043000F30F8282
:1052200009F10809129A139BC9F80030013514449A
:10523000072D25942495C9F8042000F30D8209F167
:10524000080900230022DDE91001FEF7C5FB0E9BD3
:10525000002840F0C380013B013501361C44072D76
:1052600024952594C9F80060C9F8043000F3F5804E
:1052700009F10809159AC9F80420013514441FAB37
:10528000072D25942495C9F800307FF7DDAC23AABB
:105290000599069802F03EFA00287FF43BAB259C66
:1052A0000DF1C009D2E423AA0599069802F032FA5A
:1052B00000283FF419ADFFF72DBB23AA05990698E6
:1052C00002F028FA00287FF425AB259C0DF1C009D7
:1052D000A9E423AA0599069802F01CFA00287FF495
:1052E00019AB259C0DF1C00950E423AA0599069835
:1052F00002F010FA00287FF40DAB259C0DF1C009D7
:1053000054E4BBF1000F8DF86F70C0F2DF8222F021
:105310008003039354EA05037FF4D3ADBBF1000F80
:105320003FF48CAE0027B7E61D9D002D40F3D182DF
:105330000F9B0E9A9342A8BF1346002B1D460DDD0E
:10534000249BC9F8006001332C44072B2594C9F82D
:105350000450249300F3A98309F108090F9B002D41
:10536000A8BF5B1B002B1D4640F3F880414A249BDD
:105370000B92102D40F3838222461027DDF818B0DF
:10538000059C05E009F10809103D102D40F37682D7
:1053900001331032072B25922493C9F800A0C9F8D5
:1053A0000470EFDD23AA2146584602F0B3F9002825
:1053B0007FF4B0AA259A249B0DF1C009E4E723AA43
:1053C0000599069802F0A6F900287FF4A3AA9DF893
:1053D0006F70259C0DF1C009FFF7C8BB5E1E002E43
:1053E0007FF748AF234B0B93102E2CDDCDF8248094
:1053F0001027B046DDF818B0059E06E0A8F11008A9
:10540000B8F1100F09F108091ADD01351034072D24
:1054100025942495C9F800A0C9F80470EEDD23AAEC
:105420003146584602F076F900287FF473AAA8F1B5
:105430001008B8F1100F259C249D0DF1C009E4DC83
:105440004646DDF824800B9B01353444072D259416
:10545000249589E848007FF70BAF23AA05990698A1
:1054600002F058F900287FF455AA259C249D0DF1DF
:10547000C009FFE6EC7F0000039911F0100200F074
:10548000D3810A988DF86F30BBF1000F046800F1EA
:1054900004074FF0000526DB0A4622F08002039243
:1054A00054EA05020A971F467FF4E8AACEE4039B5C
:1054B000D8062AD4039B590627D50A99B1F900408A
:1054C0000431E51722462B460A91FFF7C4BA0A9920
:1054D0008DF86F30BBF1000F0C6801F104074FF03D
:1054E000000580F24C820A971F4654EA05037FF4B8
:1054F000C5AAB0E401330B9A24932C44072B2594BE
:1055000089E824007FF7A0ABC1E60A9A1468134625
:105510000433E51722460A93002A2B4673F1000351
:10552000BFF69EAA64424FF02D0765EB4505BBF11F
:10553000000F8DF86F70FFF6A1AA039B23F0800384
:105540000393FFF79BBA23AA0599069802F0E2F8A5
:1055500000287FF4DFA9259C0DF1C0090F9A1D9B3F
:10556000324417460E9A934247DB039AD50744D438
:105570000E990E44F51BCB1A9D42A8BF1D46002D67
:105580002E460DDD249AC9F8007001322C44072AFA
:105590002594C9F80450249200F3FE8209F1080909
:1055A000002EACBF9D1B1D46002D7FF74FABBA4AA6
:1055B000249B0B92102D9DDD1026069FDDF814B064
:1055C00004E009F10809103D102D93DD013310347A
:1055D000072B25942493C9F800A0C9F80460F0DDD6
:1055E00023AA5946384602F095F800287FF492A97C
:1055F000259C249B0DF1C009E5E7249A1298139984
:10560000C9F8001001320444072A2594C9F804009F
:10561000249200F3B48209F10809A9E7039BD80793
:105620003FF5F2AD013501340123072D2594249572
:10563000C9F80060C9F804307FF71AAE0DE723AA55
:105640000599069802F066F800287FF463A9259C66
:10565000249D0DF1C009E5E523AA0599069802F0FD
:1056600059F800287FF456A9259C249D0DF1C00906
:10567000E7E523AA0599069802F04CF800287FF484
:1056800049A9259C0DF1C009FFF794BA039911F0BF
:10569000400300F0B9800A988DF86F200346BBF1F3
:1056A000000F03F1040304884FF00005C0F2C0812D
:1056B00021F08001039154EA05010A933FF4DAAC2A
:1056C0001746FFF753B9039BDF060BD4039B5E0617
:1056D00008D50A9A136804320A92BDF81C201A8071
:1056E000FFF745B80A9A136804320A92079A1A60BB
:1056F000FFF73DB8DDE9100102460B46FEF79EF9C3
:10570000002840F0FD820D9BBBF1FF3F23F02007F6
:1057100000F06782472F00F08281119B039A002BD3
:1057200042F480720B92C0F278829DED107B8DED79
:10573000187B002304930D9B662B00F05582462BAB
:1057400000F04581452F0CBF0BF101055D4621AAF4
:105750001EAB019200932A461DAB02219DED180B52
:10576000069800F001FC0D9B672B064640F06B820B
:10577000039BDA0740F1B982741900220023DDE9A6
:105780001801FEF729F9002840F08D81219B9C42E9
:1057900006D930215A1C21921970219B9C42F9D8BC
:1057A0009B1B472F0E9300F077810D9B652B40F3D9
:1057B00059820D9B662B1D9B0F9300F060820F9A00
:1057C0000E998A42C0F23282039BD90700F18F8280
:1057D00022EAE273099267220D92049A002A40F0AD
:1057E0002F8104930B9B039393469DF86F70FFF7F3
:1057F00069B927F0070797ED007B07F108038DEDE6
:10580000107B0A93FFF78ABA0A998DF86F30BBF1C3
:10581000000F0C6801F104074FF0000580F2AC8026
:105820000A970027FFF7A2B8039911F040033FF44D
:105830004EAE0A988DF86F200346BBF1000F03F1BE
:10584000040304884FF00005C0F2EF8021F08001CE
:10585000039154EA05010A9317467FF40FA9FFF755
:10586000F5BA039B0A9A13F0400F134600F0E2804A
:10587000043314880A930025FFF705BB144601334F
:105880000B9A24932C44072B259489E824003FF796
:105890005AAE09F1080961E6EC7F00000027BB451C
:1058A0008DF86F70FFF6F8AB039B23F08003039332
:1058B000FFF7C0BB23AA0599069801F02BFF00282B
:1058C0007FF428A8259C0DF1C00907E40A9FFFF783
:1058D000DCBB249BB84AC9F8002001330134012203
:1058E000072B25942493C9F8042000F38B8009F139
:1058F00008092DB90E9B1BB9039BDF077FF5A6A9ED
:10590000249B1299139AC9F8002001330C44072BE9
:105910002594C9F80410249300F3CD8109F10809F6
:105920006D42002D40F3AA80A44A0B92102D40F343
:10593000C98022461027DDF818B0059C05E009F162
:105940000809103D102D40F3BC8001331032072BA5
:1059500025922493C9F800A0C9F80470EFDD23AAAA
:105960002146584601F0D6FE00287EF4D3AF259A92
:10597000249B0DF1C009E4E7039AFFF739BA039AB3
:105980008BE5039B43F02003039308F1010898F88B
:105990000030FEF71FBF23AA0599069801F0BAFE52
:1059A00000287EF4B7AF259C0DF1C009FFF7AEBB10
:1059B00040210698FEF78EF8059A106010610028C5
:1059C00000F0F381059A40235361FEF7C0BE21AA7F
:1059D0001EAB019200935A461DAB03219DED180B9F
:1059E000069800F0C1FA5D4606460D9B462B06EB75
:1059F00005047FF4C2AE3378302B00F087811D9D03
:105A00002C44BAE623AA0599069801F083FE0028E3
:105A10007EF480AF1D9D259C0DF1C00969E7BBF1A7
:105A2000000F08BF4FF0010B77E60A9317465CE5BD
:105A30000A93F6E6043314680A930025FFF723BAA5
:105A40002D2704930B9B03938DF86F704FF0000B81
:105A5000FFF739B83046FEF7F3FDA3460346099039
:105A6000FFF7A2BA23AA0599069801F053FE002871
:105A70007EF450AF259C249B0DF1C0090E99C9F806
:105A8000006001330C44072B25942493C9F80410BB
:105A90007FF7DAA8FFF7FBBB1D9BDD1C1EDB9B45D8
:105AA0001CDB0F938BE623467AE623AA059906981A
:105AB00001F030FE00287EF42DAF259C0DF1C009C9
:105AC0004CE4144601330B9A24932C44072B259461
:105AD00089E82400C6DC09F10809CFE70D9A023AEB
