:100000000C9435000C945D000C945D000C945D0024
:100010000C945D000C945D000C945D000C945D00EC
:100020000C945D000C945D000C945D000C945D00DC
:100030000C945D000C945D000C945D000C945D00CC
:100040000C94DC010C945D000C944C020C94260280
:100050000C945D000C945D000C945D000C945D00AC
:100060000C945D000C945D007E0211241FBECFEF46
:10007000D8E0DEBFCDBF22E0A6E7B1E001C01D920F
:10008000AC34B207E1F711E0A0E0B1E0E2E2F1E167
:1000900002C005900D92A637B107D9F710E0C5E36D
:1000A000D0E004C02197FE010E94B604C433D107FA
:1000B000C9F70E94B3020C948F080C940000CF92F1
:1000C000DF92EF92FF920F931F93CF93DF936C0118
:1000D0007A018B01C0E0D0E0CE15DF0589F0D801B0
:1000E0006D918D01D601ED91FC910190F081E02D93
:1000F000C6010995892B11F47E0102C02196ECCF2F
:10010000C701DF91CF911F910F91FF90EF90DF908A
:10011000CF900895089580E090E00895FC01538DFC
:10012000448D252F30E0842F90E0821B930B5417D1
:1001300010F0CF96089501970895FC01918D828D5E
:10014000981761F0828DDF01A80FB11D5D968C912B
:10015000928D9F5F9F73928F90E008958FEF9FEF36
:100160000895FC01918D828D981731F0828DE80FF2
:10017000F11D858D90E008958FEF9FEF0895FC01AC
:10018000918D228D892F90E0805C9F4F821B910979
:100190008F739927089589EA91E00E94BF0021E0BA
:1001A000892B09F420E0822F0895FC01848DDF0162
:1001B000A80FB11DA35ABF4F2C91848D90E00196DA
:1001C0008F739927848FA689B7892C93A089B189C9
:1001D0008C9180648C93938D848D981306C00288D3
:1001E000F389E02D80818F7D80830895EF92FF92C7
:1001F0000F931F93CF93DF93EC0181E0888F9B8D4A
:100200008C8D981305C0E889F989808185FD24C00B
:10021000F62E0B8D10E00F5F1F4F0F731127E02E8E
:100220008C8DE8120CC00FB607FCFACFE889F9896B
:10023000808185FFF5CFCE010E94D500F1CF8B8D57
:10024000FE01E80FF11DE35AFF4FF0820B8FEA89A0
:10025000FB898081806207C0EE89FF896083E8891D
:10026000F98980818064808381E090E0DF91CF9183
:100270001F910F91FF90EF900895CF93DF93EC01C2
:10028000888D8823C9F0EA89FB89808185FD05C0B6
:10029000A889B9898C9186FD0FC00FB607FCF5CFF0
:1002A000808185FFF2CFA889B9898C9185FFEDCF38
:1002B000CE010E94D500E7CFDF91CF9108950F9333
:1002C0001F93CF93DF9389EA91E00E94BF00892BAF
:1002D00009F453C00CE811E0C0E0D0E02FB7F89467
:1002E0008091A5019091A601A091A701B091A801CC
:1002F0002FBF8093B1019093B201A093B301B0934B
:10030000B401E091A901F091AA010284F385E02DE6
:1003100089EA91E0099597FD08C0F80181938F0162
:100320002196C231D105D1F624C02FB7F89480911F
:10033000A5019091A601A091A701B091A8012FBF9E
:100340004091B1015091B2016091B3017091B4013B
:10035000841B950BA60BB70B4091AD015091AE01DC
:100360006091AF017091B00184179507A607B70798
:1003700040F2D0939F01C0939E01DF91CF911F91D6
:100380000F9108950E94CB0081110C945F01089594
:10039000009769F0FC0101900020E9F73197AF0167
:1003A000481B590BBC0189EA91E00C945F0080E086
:1003B00090E008950E94E9051F920F920FB60F92E8
:1003C00011242F933F938F939F93AF93BF9380916B
:1003D000A5019091A601A091A701B091A80130912B
:1003E000A40123E0230F2D3720F40196A11DB11D98
:1003F00005C026E8230F0296A11DB11D2093A4017C
:100400008093A5019093A601A093A701B093A801A2
:100410008091A0019091A101A091A201B091A301AE
:100420000196A11DB11D8093A0019093A101A093FD
:10043000A201B093A301BF91AF919F918F913F9182
:100440002F910F900FBE0F901F9018951F920F9233
:100450000FB60F9211242F933F934F935F936F9397
:100460007F938F939F93AF93BF93EF93FF9389EA0B
:1004700091E00E94D500FF91EF91BF91AF919F91C4
:100480008F917F916F915F914F913F912F910F903D
:100490000FBE0F901F9018951F920F920FB60F92DC
:1004A00011242F938F939F93EF93FF93E091B901C2
:1004B000F091BA018081E091BF01F091C00182FD0D
:1004C00012C090818091C2018F5F8F732091C30110
:1004D000821751F0E091C201F0E0E755FE4F958F91
:1004E0008093C20101C08081FF91EF919F918F9114
:1004F0002F910F900FBE0F901F901895E9EAF1E031
:100500001382128288EE93E0A0E0B0E084839583AA
:10051000A683B7838AE091E09183808385EC90E0A5
:100520009587848784EC90E09787868780EC90E0BD
:10053000918B808B81EC90E0938B828B82EC90E0AE
:10054000958B848B86EC90E0978B868B118E128E28
:10055000138E148E84E690E00E94BC0490934702B0
:10056000809346020895CF93DF93CDB7DEB7A1976E
:100570000FB6F894DEBF0FBECDBF789484B582600D
:1005800084BD84B5816084BD85B5826085BD85B537
:10059000816085BD80916E00816080936E001092B5
:1005A0008100809181008260809381008091810030
:1005B00081608093810080918000816080938000C1
:1005C0008091B10084608093B1008091B00081601F
:1005D0008093B00080917A00846080937A0080914B
:1005E0007A00826080937A0080917A0081608093A3
:1005F0007A0080917A00806880937A001092C1001E
:10060000E091B901F091BA0182E08083E091B501F7
:10061000F091B6011082E091B701F091B80183E149
:1006200080831092C101E091BD01F091BE0186E28C
:100630008083E091BB01F091BC0180818061808367
:10064000E091BB01F091BC01808188608083E091E2
:10065000BB01F091BC01808180688083E091BB0187
:10066000F091BC0180818F7D808389EA91E00E94B6
:10067000BF00892BD1F30AE111E089EA91E00E94E1
:10068000BF00892B09F438C180919E0190919F0190
:10069000429709F031C180918D0190E0382F2227D7
:1006A00040918C01242B3770309377012093760191
:1006B00020918E0130E0A90165E0440F551F6A9535
:1006C000E1F773E0959587957A95E1F7842B952B63
:1006D000977090937901809378018091900190E0D8
:1006E00040918F0164E0469FA0011124E6E035951A
:1006F0002795EA95E1F7242B352BAC01542F44279D
:10070000550F550F242B352B377030937B012093D9
:100710007A0140919101242F30E0B9017695762F2E
:1007200066277795679595958795862B972B977074
:1007300090937D0180937C01429546954695437048
:1007400040937E0184E0359527958A95E1F72370E3
:1007500020937F018091930190E0982F882720912A
:100760009201822B90938101809380018091950169
:1007700090E0982F882720919401822B90938301F9
:10078000809382018091970190E0982F8827209193
:100790009601822B9093850180938401809198012A
:1007A00080938801809199018093890180919B01B8
:1007B00090E0982F882720919A01822B90938B01AB
:1007C00080938A016CE8E62E61E0F62EF7014191F4
:1007D0007F0150E060E070E019A2FE01B196DB01FC
:1007E000CA018F709927AA27BB2724E076956795C1
:1007F000579547952A95D1F731978A309105A105EC
:10080000B10510F4805D01C0895C808341155105FC
:100810006105710521F7CF010E94C80188E191E0CF
:100820000E94C801FEE9EF16F1E0FF0679F680911B
:100830008B018F9380918A018F93809189011F9200
:100840008F93809188011F928F93809185018F9360
:10085000809184018F93809183018F938091820195
:100860008F93809181018F93809180018F938091EC
:100870007F01282F082E000C330B3F938F9380911C
:100880007E01282F082E000C330B3F938F9380910D
:100890007D018F9380917C018F9380917B018F9359
:1008A00080917A018F93809179018F938091780163
:1008B0008F93809177018F93809176018F931F930F
:1008C0000F93809147028F93809146028F930E94ED
:1008D000EE0580914602909147020E94C80183E78D
:1008E00091E00E94C80110929F0110929E010FB6E4
:1008F000F894DEBF0FBECDBF0E94C201BECE2F92C4
:100900003F924F925F926F927F928F929F92AF929F
:10091000BF92CF92DF92EF92FF920F931F93CF93EC
:10092000DF93CDB7DEB7CA1BDB0B0FB6F894DEBF83
:100930000FBECDBF09942A88398848885F846E84A9
:100940007D848C849B84AA84B984C884DF80EE80F3
:10095000FD800C811B81AA81B981CE0FD11D0FB6FC
:10096000F894DEBF0FBECDBFED010895EE0FFF1F5F
:100970000590F491E02D0994CF93DF938230910597
:1009800010F482E090E0E0914A02F0914B0220E006
:1009900030E0C0E0D0E0309711F14081518148173C
:1009A0005907C0F04817590761F482819381209755
:1009B00019F09B838A832BC090934B0280934A0249
:1009C00026C02115310519F04217530718F49A0172
:1009D000BE01DF01EF010280F381E02DDCCF2115A4
:1009E000310509F1281B390B2430310590F412969A
:1009F0008D919C9113976115710521F0FB019383F3
:100A0000828304C090934B0280934A02FD01329688
:100A100044C0FD01E20FF31F8193919322503109ED
:100A20002D933C933AC02091480230914902232BE8
:100A300041F4209102013091030130934902209347
:100A4000480220910001309101012115310541F446
:100A50002DB73EB74091040150910501241B350B81
:100A6000E0914802F0914902E217F307A0F42E1B2F
:100A70003F0B2817390778F0AC014E5F5F4F241702
:100A8000350748F04E0F5F1F5093490240934802CC
:100A90008193919302C0E0E0F0E0CF01DF91CF912C
:100AA00008950F931F93CF93DF93009709F48CC0A1
:100AB000FC0132971382128200914A0210914B027C
:100AC0000115110581F420813181820F931F20913E
:100AD0004802309149022817390779F5F093490205
:100AE000E093480271C0D80140E050E0AE17BF0764
:100AF00050F412962D913C911397AD0121153105BB
:100B000009F1D901F3CF9D01DA013383228360819A
:100B10007181860F971F8217930769F4EC01288172
:100B20003981260F371F2E5F3F4F318320838A8103
:100B30009B8193838283452B29F4F0934B02E093AE
:100B40004A0242C01396FC93EE931297ED0149912D
:100B500059919E01240F351FE217F30771F480812C
:100B60009181840F951F029611969C938E9382819A
:100B7000938113969C938E931297E0E0F0E0D80156
:100B800012968D919C911397009719F0F8018C01A2
:100B9000F6CF8D919C9198012E5F3F4F820F931F4E
:100BA00020914802309149022817390769F430979B
:100BB00029F410924B0210924A0202C01382128250
:100BC0001093490200934802DF91CF911F910F913A
:100BD000089581E090E0F8940C948F08AEE0B0E0C6
:100BE000E4EFF5E00C948D040D891E8986E08C837A
:100BF0001A8309838FEF9FE79E838D83AE01475E43
:100C00005F4F6F89788DCE0101960E9411062F816A
:100C10003885F801E20FF31F10822E96E4E00C9461
:100C2000A904ACE0B0E0E7E1F6E00C947F047C01BD
:100C30006B018A01FC0117821682838181FFBDC18D
:100C4000CE0101964C01F7019381F60193FD859148
:100C500093FF81916F01882309F4ABC1853239F488
:100C600093FD859193FF81916F01853229F4B7013E
:100C700090E00E94F907E7CF512C312C20E0203280
:100C8000A0F48B3269F030F4803259F0833269F489
:100C900020612CC08D3239F0803339F4216026C0B8
:100CA0002260246023C0286021C027FD27C030EDCA
:100CB000380F3A3078F426FF06C0FAE05F9E300D18
:100CC0001124532E13C08AE0389E300D1124332E88
:100CD00020620CC08E3221F426FD6BC1206406C058
:100CE0008C3611F4206802C0883641F4F60193FD79
:100CF000859193FF81916F018111C1CF982F9F7DC5
:100D00009554933028F40C5F1F4FFFE3F9830DC017
:100D1000833631F0833771F0833509F05BC022C030
:100D2000F801808189830E5F1F4F44244394512C26
:100D3000540115C03801F2E06F0E711CF801A0805B
:100D4000B18026FF03C0652D70E002C06FEF7FEF1A
:100D5000C5012C870E94EE072C0183012C852F777B
:100D6000222E17C03801F2E06F0E711CF801A0802E
:100D7000B18026FF03C0652D70E002C06FEF7FEFEA
:100D8000C5012C870E94E3072C012C852068222EA8
:100D9000830123FC1BC0832D90E048165906B0F454
:100DA000B70180E290E00E94F9073A94F4CFF50190
:100DB00027FC859127FE81915F01B70190E00E9499
:100DC000F90731103A94F1E04F1A510841145104D7
:100DD00071F7E5C0843611F0893639F5F80127FF3F
:100DE00007C060817181828193810C5F1F4F08C0B1
:100DF00060817181072E000C880B990B0E5F1F4FCD
:100E00002F76722E97FF09C0909580957095619509
:100E10007F4F8F4F9F4F2068722E2AE030E0A40151
:100E20000E943108A82EA81844C0853729F42F7EC7
:100E3000B22E2AE030E025C0F22FF97FBF2E8F3688
:100E4000C1F018F4883579F0B4C0803719F08837CC
:100E500021F0AFC02F2F2061B22EB4FE0DC08B2D1C
:100E60008460B82E09C024FF0AC09F2F9660B92E57
:100E700006C028E030E005C020E130E002C020E1FB
:100E800032E0F801B7FE07C06081718182819381F1
:100E90000C5F1F4F06C06081718180E090E00E5FA3
:100EA0001F4FA4010E943108A82EA818FB2DFF7720
:100EB0007F2E76FE0BC0372D3E7FA51450F474FEB6
:100EC0000AC072FC08C0372D3E7E05C0BA2C372DF3
:100ED00003C0BA2C01C0B52C34FF0DC0FE01EA0DD1
:100EE000F11D8081803311F4397E09C032FF06C0C4
:100EF000B394B39404C0832F867809F0B39433FD80
:100F000013C030FF06C05A2CB31418F4530C5B18EE
:100F1000B32CB31468F4B70180E290E03C870E94E0
:100F2000F907B3943C85F5CFB31410F43B1801C016
:100F3000312C34FF12C0B70180E390E03C870E945F
:100F4000F9073C8532FF17C031FD03C088E790E008
:100F500002C088E590E0B7010CC0832F867859F075
:100F600031FF02C08BE201C080E237FD8DE2B701A4
:100F700090E00E94F907A51438F4B70180E390E0EF
:100F80000E94F9075A94F7CFAA94F401EA0DF11DD3
:100F90008081B70190E00E94F907A110F5CF3320BE
:100FA00009F451CEB70180E290E00E94F9073A942B
:100FB000F6CFF7018681978102C08FEF9FEF2C96C5
:100FC000E2E10C949B04FC0105906150704001101B
:100FD000D8F7809590958E0F9F1F0895FC01615062
:100FE000704001900110D8F7809590958E0F9F1F4B
:100FF00008950F931F93CF93DF93FB01238121FD6E
:1010000003C08FEF9FEF28C022FF16C04681578193
:10101000248135814217530744F4A081B1819D0199
:101020002F5F3F4F318320838C93268137812F5F41
:101030003F4F3783268310C0EB01092F182F008400
:10104000F185E02D0995892BE1F68E819F8101962E
:101050009F838E83812F902FDF91CF911F910F91CE
:101060000895FA01AA27283051F1203181F1E8943E
:101070006F936E7F6E5F7F4F8F4F9F4FAF4FB1E08B
:101080003ED0B4E03CD0670F781F891F9A1FA11D86
:10109000680F791F8A1F911DA11D6A0F711D811D87
:1010A000911DA11D20D009F468943F912AE0269F4C
:1010B00011243019305D3193DEF6CF010895462FAB
:1010C0004770405D4193B3E00FD0C9F7F6CF462F8C
:1010D0004F70405D4A3318F0495D31FD40524193F5
:1010E00002D0A9F7EACFB4E0A695979587957795B2
:1010F0006795BA95C9F700976105710508959B0139
:10110000AC010A2E06945795479537952795BA95C1
:10111000C9F7620F731F841F951FA01D0895F894CF
:02112000FFCFFF
:1011220000004C02800000000000F6005F008E000C
:101132003D01BF009D00B100200043303A202564EC
:101142002C2043313A2025642C2043323A20256456
:101152002C2043333A2025642C2053313A20256435
:101162002C2053323A2025642C20583A2025642C16
:1011720020593A2025642C205A3A2025642C204CF0
:101182003A2025642C20523A2025642C204B3A2008
:061192002564000D0A00B7
:00000001FF
