:100000000C9435000C945D000C945D000C945D0024
:100010000C945D000C945D000C945D000C945D00EC
:100020000C945D000C945D000C945D000C945D00DC
:100030000C945D000C945D000C945D000C945D00CC
:100040000C9422020C945D000C9492020C946C02AD
:100050000C945D000C945D000C945D000C945D00AC
:100060000C945D000C945D00C40211241FBECFEF00
:10007000D8E0DEBFCDBF22E0AAE9B1E001C01D9209
:10008000A238B207E1F711E0A0E0B1E0EEE9F2E159
:1000900002C005900D92AA39B107D9F710E0C5E367
:1000A000D0E004C02197FE010E947405C433D1073B
:1000B000C9F70E94F9020C944D090C9400002FB767
:1000C000F8948091DB019091DC01A091DD01B09169
:1000D000DE012FBF8093E7019093E801A093E9012F
:1000E000B093EA01E091DF01F091E0010284F38531
:1000F000E02D8FED91E0099597FF26C02FB7F8947A
:100100008091DB019091DC01A091DD01B091DE01D5
:100110002FBF4091E7015091E8016091E901709192
:10012000EA01841B950BA60BB70B4091E30150919C
:10013000E4016091E5017091E60184179507A60737
:10014000B70780F28FEF9FEF0895CF92DF92EF9283
:10015000FF920F931F93CF93DF936C017A018B0172
:10016000C0E0D0E0CE15DF0589F0D8016D918D019A
:10017000D601ED91FC910190F081E02DC601099529
:10018000892B11F47E0102C02196ECCFC701DF91CB
:10019000CF911F910F91FF90EF90DF90CF90089536
:1001A000089580E090E00895FC01538D448D252F43
:1001B00030E0842F90E0821B930B541710F0CF9601
:1001C000089501970895FC01918D828D981761F033
:1001D000828DDF01A80FB11D5D968C91928D9F5F7E
:1001E0009F73928F90E008958FEF9FEF0895FC0129
:1001F000918D828D981731F0828DE80FF11D858DDC
:1002000090E008958FEF9FEF0895FC01918D228D6E
:10021000892F90E0805C9F4F821B91098F739927F3
:1002200008958FED91E00E94050121E0892B09F4EA
:1002300020E0822F0895FC01848DDF01A80FB11DFD
:10024000A35ABF4F2C91848D90E001968F7399270C
:10025000848FA689B7892C93A089B1898C918064F9
:100260008C93938D848D981306C00288F389E02DBA
:1002700080818F7D80830895EF92FF920F931F936B
:10028000CF93DF93EC0181E0888F9B8D8C8D981349
:1002900005C0E889F989808185FD24C0F62E0B8D83
:1002A00010E00F5F1F4F0F731127E02E8C8DE812A7
:1002B0000CC00FB607FCFACFE889F989808185FF69
:1002C000F5CFCE010E941B01F1CF8B8DFE01E80F0F
:1002D000F11DE35AFF4FF0820B8FEA89FB89808181
:1002E000806207C0EE89FF896083E889F98980818F
:1002F0008064808381E090E0DF91CF911F910F9126
:10030000FF90EF900895CF93DF93EC01888D8823C1
:10031000C9F0EA89FB89808185FD05C0A889B98972
:100320008C9186FD0FC00FB607FCF5CF808185FF4D
:10033000F2CFA889B9898C9185FFEDCFCE010E94BB
:100340001B01E7CFDF91CF9108950F931F93CF93B8
:10035000DF938FED91E00E940501892B99F002EC6B
:1003600011E0C0E0D0E00E945F0097FD07C0F801F7
:1003700081938F012196C231D105A9F7D093D50180
:10038000C093D401DF91CF911F910F9108950E94E6
:10039000110181110C94A5010895009769F0FC01E9
:1003A00001900020E9F73197AF01481B590BBC01C0
:1003B0008FED91E00C94A50080E090E008958F927D
:1003C0009F92AF92BF920F931F93CF93DF93CDB7BE
:1003D000DEB7A1970FB6F894DEBF0FBECDBF19A24E
:1003E000423008F44AE08E010F5D1F4F842E912C9D
:1003F000A12CB12CA50194010E943E05E62FB90164
:10040000CA0101501109EA3014F4E05D01C0E95C51
:10041000D801EC93232B242B252B61F7C8010E94D4
:10042000CD01A1960FB6F894DEBF0FBECDBFDF9110
:10043000CF911F910F91BF90AF909F908F90089593
:100440000E94A7061F920F920FB60F9211242F93AE
:100450003F938F939F93AF93BF938091DB019091D4
:10046000DC01A091DD01B091DE013091DA0123E0E1
:10047000230F2D3720F40196A11DB11D05C026E8DC
:10048000230F0296A11DB11D2093DA018093DB0199
:100490009093DC01A093DD01B093DE018091D60141
:1004A0009091D701A091D801B091D9010196A11DD9
:1004B000B11D8093D6019093D701A093D801B0933A
:1004C000D901BF91AF919F918F913F912F910F9043
:1004D0000FBE0F901F9018951F920F920FB60F929C
:1004E00011242F933F934F935F936F937F938F9339
:1004F0009F93AF93BF93EF93FF938FED91E00E9493
:100500001B01FF91EF91BF91AF919F918F917F91CF
:100510006F915F914F913F912F910F900FBE0F9070
:100520001F9018951F920F920FB60F9211242F93C0
:100530008F939F93EF93FF93E091EF01F091F00180
:100540008081E091F501F091F60182FD12C0908169
:100550008091F8018F5F8F732091F901821751F01C
:10056000E091F801F0E0E152FE4F958F8093F801A1
:1005700001C08081FF91EF919F918F912F910F90FA
:100580000FBE0F901F901895EFEDF1E013821282CD
:1005900088EE93E0A0E0B0E084839583A683B783E0
:1005A0008CE191E09183808385EC90E0958784874E
:1005B00084EC90E09787868780EC90E0918B808B2D
:1005C00081EC90E0938B828B82EC90E0958B848B16
:1005D00086EC90E0978B868B118E128E138E148E84
:1005E00084E690E00E947A0590937D0280937C02DD
:1005F0000895789484B5826084BD84B5816084BD9B
:1006000085B5826085BD85B5816085BD80916E00B0
:10061000816080936E0010928100809181008260E1
:10062000809381008091810081608093810080911E
:1006300080008160809380008091B100846080930D
:10064000B1008091B00081608093B00080917A0009
:10065000846080937A0080917A00826080937A002F
:1006600080917A00816080937A0080917A0080681E
:1006700080937A001092C100E091EF01F091F001B7
:1006800082E08083E091EB01F091EC011082E09137
:10069000ED01F091EE0183E180831092F701E0918A
:1006A000F301F091F40186E28083E091F101F09191
:1006B000F201808180618083E091F101F091F2018B
:1006C000808188608083E091F101F091F201808166
:1006D00080688083E091F101F091F20180818F7D4B
:1006E00080838FED91E00E940501892BD1F302E117
:1006F00010E0C0E4D1E08FED91E00E940501892B6C
:1007000009F447C18091D4019091D501429709F035
:1007100040C1E12CF12CE6E0CE2EE1E0DE2E20E01F
:1007200030E0F60141916F01C9018E0D9F1DB801A6
:100730000E942A05FC01EE53FE4F8081481306C03B
:100740002F5F3F4F2231310561F726C1253031053A
:1007500021F48839A9F3883599F3FFEFEF1AFF0ADE
:1007600062E1E616F104B9F68091C30190E0382FFA
:1007700022274091C201242B377030939B01209394
:100780009A012091C40130E0A90165E0440F551F92
:100790006A95E1F773E0959587957A95E1F7842B53
:1007A000952B977090939D0180939C018091C60139
:1007B00090E04091C501F4E04F9FA0011124E6E0D4
:1007C00035952795EA95E1F7242B352BAC01542F6D
:1007D0004427550F550F242B352B377030939F012D
:1007E00020939E014091C701242F30E0B9017695F6
:1007F000762F66277795679595958795862B972B06
:1008000097709093A1018093A001429546954695DB
:1008100043704093A20184E0359527958A95E1F7CE
:1008200023702093A3018091C90190E0982F88271D
:100830002091C801822B9093A5018093A4018091FF
:10084000CB0190E0982F88272091CA01822B9093AA
:10085000A7018093A6018091CD0190E0982F882771
:100860002091CC01822B9093A9018093A8018091C3
:10087000CE018093AC018091CF018093AD01809136
:10088000D10190E0982F88272091D001822B90935E
:10089000AF018093AE0162ECE62E61E0F62EF70127
:1008A00061917F0170E080E090E040E10E94DF0113
:1008B0008EE391E00E94CD01F4EDEF16F1E0FF062A
:1008C00071F78091AF018F938091AE018F938091EA
:1008D000AD011F928F938091AC011F928F938091F5
:1008E000A9018F938091A8018F938091A7018F9385
:1008F0008091A6018F938091A5018F938091A4018F
:100900008F938091A301282F082E000C330B3F9367
:100910008F938091A201282F082E000C330B3F9358
:100920008F938091A1018F938091A0018F938091EB
:100930009F018F9380919E018F9380919D018F9352
:1009400080919C018F9380919B018F9380919A015C
:100950008F93DF93CF9380917D028F9380917C0260
:100960008F930E94AC0680917C0290917D020E9440
:10097000CD018BE391E00E94CD011092D501109240
:10098000D401EDB7FEB77C960FB6F894FEBF0FBE4C
:10099000EDBF0E94C701AFCEE114F10409F4E4CE2B
:1009A000B7010F2C000C880B990B4AE00E94DF0165
:1009B0008AE291E00E94CD018BE391E00E94CD019B
:1009C00070EBC72E71E0D72EC70180559E4F7C017A
:1009D0000E945F0097FDDDCFF60181936F01EE1558
:1009E000FF05B1F7D6CF2F923F924F925F926F9251
:1009F0007F928F929F92AF92BF92CF92DF92EF92AF
:100A0000FF920F931F93CF93DF93CDB7DEB7CA1B2F
:100A1000DB0B0FB6F894DEBF0FBECDBF09942A885A
:100A2000398848885F846E847D848C849B84AA8402
:100A3000B984C884DF80EE80FD800C811B81AA818F
:100A4000B981CE0FD11D0FB6F894DEBF0FBECDBF5A
:100A5000ED01089597FB072E16F4009407D077FD5B
:100A600009D00E94600507FC05D03EF49095819561
:100A70009F4F0895709561957F4F0895A1E21A2EBA
:100A8000AA1BBB1BFD010DC0AA1FBB1FEE1FFF1F32
:100A9000A217B307E407F50720F0A21BB30BE40B82
:100AA000F50B661F771F881F991F1A9469F76095C9
:100AB0007095809590959B01AC01BD01CF01089583
:100AC000AA1BBB1B51E107C0AA1FBB1FA617B70774
:100AD00010F0A61BB70B881F991F5A95A9F7809590
:100AE0009095BC01CD010895EE0FFF1F0590F49184
:100AF000E02D0994CF93DF938230910510F482E0CA
:100B000090E0E0918002F091810220E030E0C0E0CE
:100B1000D0E0309711F14081518148175907C0F05A
:100B20004817590761F482819381209719F09B83BC
:100B30008A832BC0909381028093800226C0211566
:100B4000310519F04217530718F49A01BE01DF016D
:100B5000EF010280F381E02DDCCF2115310509F191
:100B6000281B390B2430310590F412968D919C91FD
:100B700013976115710521F0FB019383828304C0F3
:100B80009093810280938002FD01329644C0FD0162
:100B9000E20FF31F81939193225031092D933C93DF
:100BA0003AC020917E0230917F02232B41F42091A4
:100BB00002013091030130937F0220937E02209145
:100BC0000001309101012115310541F42DB73EB7E7
:100BD0004091040150910501241B350BE0917E02E8
:100BE000F0917F02E217F307A0F42E1B3F0B2817AA
:100BF000390778F0AC014E5F5F4F2417350748F096
:100C00004E0F5F1F50937F0240937E02819391931A
:100C100002C0E0E0F0E0CF01DF91CF9108950F93A3
:100C20001F93CF93DF93009709F48CC0FC01329798
:100C30001382128200918002109181020115110528
:100C400081F420813181820F931F20917E023091A7
:100C50007F022817390779F5F0937F02E0937E022F
:100C600071C0D80140E050E0AE17BF0750F41296B3
:100C70002D913C911397AD012115310509F1D90151
:100C8000F3CF9D01DA013383228360817181860F66
:100C9000971F8217930769F4EC0128813981260F89
:100CA000371F2E5F3F4F318320838A819B8193833F
:100CB0008283452B29F4F0938102E093800242C0A5
:100CC0001396FC93EE931297ED01499159919E0171
:100CD000240F351FE217F30771F480819181840F8F
:100CE000951F029611969C938E9382819381139601
:100CF0009C938E931297E0E0F0E0D80112968D91CC
:100D00009C911397009719F0F8018C01F6CF8D9103
:100D10009C9198012E5F3F4F820F931F20917E027E
:100D200030917F022817390769F4309729F410921F
:100D300081021092800202C01382128210937F02FD
:100D400000937E02DF91CF911F910F91089581E072
:100D500090E0F8940C944D09AEE0B0E0E2EBF6E0E0
:100D60000C9401050D891E8986E08C831A83098302
:100D70008FEF9FE79E838D83AE01475E5F4F6F8944
:100D8000788DCE0101960E94CF062F813885F8011B
:100D9000E20FF31F10822E96E4E00C941D05ACE0E8
:100DA000B0E0E5EDF6E00C94F3047C016B018A0100
:100DB000FC0117821682838181FFBDC1CE0101969D
:100DC0004C01F7019381F60193FD859193FF819189
:100DD0006F01882309F4ABC1853239F493FD859105
:100DE00093FF81916F01853229F4B70190E00E9451
:100DF000B708E7CF512C312C20E02032A0F48B3201
:100E000069F030F4803259F0833269F420612CC0EB
:100E10008D3239F0803339F4216026C0226024609D
:100E200023C0286021C027FD27C030ED380F3A309D
:100E300078F426FF06C0FAE05F9E300D1124532E91
:100E400013C08AE0389E300D1124332E20620CC06E
:100E50008E3221F426FD6BC1206406C08C3611F45D
:100E6000206802C0883641F4F60193FD859193FF16
:100E700081916F018111C1CF982F9F7D955493303F
:100E800028F40C5F1F4FFFE3F9830DC0833631F068
:100E9000833771F0833509F05BC022C0F80180818F
:100EA00089830E5F1F4F44244394512C540115C075
:100EB0003801F2E06F0E711CF801A080B18026FFAE
:100EC00003C0652D70E002C06FEF7FEFC5012C8776
:100ED0000E94AC082C0183012C852F77222E17C08D
:100EE0003801F2E06F0E711CF801A080B18026FF7E
:100EF00003C0652D70E002C06FEF7FEFC5012C8746
:100F00000E94A1082C012C852068222E830123FC3D
:100F10001BC0832D90E048165906B0F4B70180E25B
:100F200090E00E94B7083A94F4CFF50127FC859130
:100F300027FE81915F01B70190E00E94B708311050
:100F40003A94F1E04F1A51084114510471F7E5C089
:100F5000843611F0893639F5F80127FF07C0608122
:100F60007181828193810C5F1F4F08C06081718104
:100F7000072E000C880B990B0E5F1F4F2F76722ED9
:100F800097FF09C090958095709561957F4F8F4F21
:100F90009F4F2068722E2AE030E0A4010E94EF08E3
:100FA000A82EA81844C0853729F42F7EB22E2AE037
:100FB00030E025C0F22FF97FBF2E8F36C1F018F434
:100FC000883579F0B4C0803719F0883721F0AFC088
:100FD0002F2F2061B22EB4FE0DC08B2D8460B82E51
:100FE00009C024FF0AC09F2F9660B92E06C028E0D2
:100FF00030E005C020E130E002C020E132E0F8013D
:10100000B7FE07C060817181828193810C5F1F4FA1
:1010100006C06081718180E090E00E5F1F4FA401E7
:101020000E94EF08A82EA818FB2DFF777F2E76FED2
:101030000BC0372D3E7FA51450F474FE0AC072FC1D
:1010400008C0372D3E7E05C0BA2C372D03C0BA2C00
:1010500001C0B52C34FF0DC0FE01EA0DF11D8081E9
:10106000803311F4397E09C032FF06C0B394B394C3
:1010700004C0832F867809F0B39433FD13C030FF8A
:1010800006C05A2CB31418F4530C5B18B32CB314C9
:1010900068F4B70180E290E03C870E94B708B394FF
:1010A0003C85F5CFB31410F43B1801C0312C34FF4C
:1010B00012C0B70180E390E03C870E94B7083C85EE
:1010C00032FF17C031FD03C088E790E002C088E519
:1010D00090E0B7010CC0832F867859F031FF02C031
:1010E0008BE201C080E237FD8DE2B70190E00E9403
:1010F000B708A51438F4B70180E390E00E94B70860
:101100005A94F7CFAA94F401EA0DF11D8081B7013A
:1011100090E00E94B708A110F5CF332009F451CE1A
:10112000B70180E290E00E94B7083A94F6CFF70149
:101130008681978102C08FEF9FEF2C96E2E10C949D
:101140000F05FC010590615070400110D8F78095A3
:1011500090958E0F9F1F0895FC0161507040019083
:101160000110D8F7809590958E0F9F1F08950F93CB
:101170001F93CF93DF93FB01238121FD03C08FEFEA
:101180009FEF28C022FF16C04681578124813581F8
:101190004217530744F4A081B1819D012F5F3F4F57
:1011A000318320838C93268137812F5F3F4F378394
:1011B000268310C0EB01092F182F0084F185E02D44
:1011C0000995892BE1F68E819F8101969F838E83FD
:1011D000812F902FDF91CF911F910F910895FA01E8
:1011E000AA27283051F1203181F1E8946F936E7F66
:1011F0006E5F7F4F8F4F9F4FAF4FB1E03ED0B4E057
:101200003CD0670F781F891F9A1FA11D680F791F97
:101210008A1F911DA11D6A0F711D811D911DA11DA8
:1012200020D009F468943F912AE0269F11243019B8
:10123000305D3193DEF6CF010895462F4770405D53
:101240004193B3E00FD0C9F7F6CF462F4F70405D02
:101250004A3318F0495D31FD4052419302D0A9F75D
:10126000EACFB4E0A6959795879577956795BA9557
:10127000C9F700976105710508959B01AC010A2E1D
:1012800006945795479537952795BA95C9F7620FF4
:0E129000731F841F951FA01D0895F894FFCFB3
:10129E000000820280000004200001D8000000003F
:1012AE000000000000000000000000003C01A5004E
:1012BE00D40083010501E300F700206269747320F6
:1012CE00746F20636F7272656374000D0A002000E4
:1012DE0043303A2025642C2043313A2025642C20BB
:1012EE0043323A2025642C2043333A2025642C20A7
:1012FE0053313A2025642C2053323A2025642C2079
:10130E00583A2025642C20593A2025642C205A3A2C
:10131E002025642C204C3A2025642C20523A20257E
:0A132E00642C204B3A2025640000D7
:00000001FF
